:020000040800F2
:1030000000400020BF410008BD410008BD4100084C
:10301000BD410008BD410008BD410008000000009E
:103020000000000000000000000000000340000855
:10303000BD410008000000001D4000084B40000892
:10304000BD410008BD410008BD410008BD41000868
:10305000BD410008BD410008BD410008BD41000858
:10306000BD410008BD410008BD410008BD41000848
:10307000BD410008BD410008BD410008BD41000838
:10308000BD410008BD410008BD410008BD41000828
:10309000BD410008BD410008BD410008BD41000818
:1030A00000000000BD410008BD410008BD4100080E
:1030B000BD410008BD410008BD410008BD410008F8
:1030C000BD410008BD410008BD410008BD410008E8
:1030D000BD410008BD410008BD410008BD410008D8
:1030E000BD410008BD410008BD410008BD410008C8
:1030F000BD410008000000000000000000000000CA
:1031000000000000000000000000000000000000BF
:1031100000000000000000000000000000000000AF
:10312000000000000000000000000000000000009F
:1031300000000000000000005FF808F172B6024ACB
:1031400013880133138070470C000020034A138852
:10315000013B9BB2138003B962B670470C0000209C
:1031600008B5064800F00AFF00F016FA00F028F94A
:1031700000F038FEBDE8084000F080BB006CDC02C7
:1031800008B500F07BFC4FF0E022D2F8203D43F47C
:103190007F03C2F8203DBDE8084000F00CBF00BF2F
:1031A0004FF0FF33C360031DC0E9013300230383E5
:1031B0007047002303617047038B10B5021D43B9AC
:1031C000C1E90022C0E901110160013308610383F4
:1031D00010BD84682160C1E900248160F5E70346E1
:1031E0001B6900680433984208BF006870470346B3
:1031F0001B6940680433984208BF4068704770B448
:10320000048B02460B4614B970BCFFF7D5BF8D681E
:10321000691C0AD1816808680134186043605960EC
:103220000B601A61148370BC70470430014600685B
:103230008668AE42FAD9EEE70369D0E900124A6027
:1032400011601968814208BF1A6000220261188B60
:10325000013880B218837047024603681B6842F841
:10326000043B934204BF1B6803600368D86870473F
:10327000F0B5264E32686AB9254B264940F654040B
:103280001A719A600A6001221C6033608B60224BC5
:103290000A711C60C31C33F0030335D01E4F39681C
:1032A000994231D31B4A3068926890421FD100790D
:1032B000012829D014689C4226D3E51A142D02F166
:1032C0000C001CD903F10C0C0C3D42F80C500025ED
:1032D00002EB0C0425719568A56005B934600125E1
:1032E0000C391360CB1A157194603B60F0BD146803
:1032F0009C4202D31479012CDCD19268D5E70123DA
:10330000091B13713960F1E70020EFE7140000207A
:10331000240000201800002010000020F0B5254DEA
:10332000296899B190B10B680C330B4498420DD2C7
:10333000214EB3680C33984208D3324633460C38DA
:10334000994207D0834202D1197931B9F0BD1A46AA
:103350009B68F5E78342F9D1F6E70027174C196817
:1033600020681F719F680844206077B197F804C0F7
:10337000BCF1000F09D10C30206038680C310144D9
:103380001960B968996001B92B6011790029DDD104
:10339000B242DBD029681868994221689B6801F124
:1033A0000C012160116808BF2A6001440C311160D2
:1033B0009360CBE7140000201800002010000020CC
:1033C00010B5FFF7BBFE0F4A0F4BD2F86C021A6024
:1033D00000231C4602F114011F2B03F1010312BF4D
:1033E00041F8141C01240020202B01F11401F3D119
:1033F0000CB1C2F86C020022044B1A70BDE81040F8
:10340000FFF7A4BE8808002084080020080B0020D5
:1034100010B50446FFF792FE084B1A681C60237C27
:103420002260012B02D1E068FFF778FF044A13788D
:10343000013B1370BDE81040FFF788BE84080020F0
:10344000080B002000230172C0E90033437270476B
:103450002DE9F84F054692461E468B46FFF76EFE55
:103460006A7A2B7A9A4203D3BDE8F84FFFF76EBE13
:103470001A4F3B781F2BF7D84FF00109DFF8608017
:103480000133D8F800403046226884F81090C4F820
:1034900008B02671C8F800203B70FFF7E9FEE06035
:1034A00040B9D8F80030C8F8004023603B78013BB1
:1034B0003B70D9E73246514600F0FEFE6B7A2BB9DD
:1034C000C5E9004485F809902360CDE76A680133B7
:1034D000146000226C6022606B72C5E7080B00204C
:1034E00084080020F8B504460D46FFF727FE627AEF
:1034F000237A934203D8BDE8F840FFF727BE0E4970
:1035000008781F28F7D80D4E0130336808701F68FF
:10351000376042B90121C4E9003361721A600022A8
:103520009D601A74E7E7616801320B6000216360F7
:1035300019606272F3E700BF080B002084080020C6
:10354000427A03466AB1012A08BF0022006818BF08
:1035500002F1FF3201685A72196008BFC3E9002204
:1035600070471046704703790B70C0687047FFF7CB
:10357000E7BF8068704700BF0123C0F3C702054959
:1035800000F00700C0F1070003FA00F08B5C18435D
:1035900088547047090B00200022034B09201A7041
:1035A0005A70FFF7E9BF00BF090B00200123C0F3E9
:1035B000C702054900F00700C0F107008340885C9E
:1035C00020EA030088547047090B00200020094BB3
:1035D00013F8012B3AB10023C3F1070342FA03F3B6
:1035E000DB0702D570470830F2E7013000F007032F
:1035F000F2E700BF090B002000207047FEE708B586
:1036000000F02EFCFCE770B504461C260A4D90F82D
:103610003000211D06FB0050FFF7CEFD94F830006E
:1036200006FB00552B8B012B01D1FFF7A5FF0123D2
:1036300084F84C3070BD00BF500B0020F8B5224B11
:10364000224C06461D6820680F460430FFF7F4FD43
:1036500020B9236893F83000FFF7A8FF731C19D135
:10366000C7B121681A480431FFF7A6FD0322236879
:1036700083F84C20FFF7AAFF1C22C3B2154802FBB7
:1036800003004368DA68144B1A6000221B6883F851
:103690004C20F8BD2368AD19DD6008D30F4B1868C6
:1036A00021680431FFF7ABFD02222368E0E70C4BF1
:1036B000186821680431FFF7A2FD0A4B1A68AA4274
:1036C00088BF1D60F0E700BF9C0C0020940C002018
:1036D0006C0C0020500B0020980C00204C0B00209C
:1036E000440B0020000000202DE9F74F98460C9B6A
:1036F000074601934B4B8A461B689346DDF834908E
:10370000002B00F08680484A1278824240F2818085
:1037100053F82050002D7CD14FEA8900FFF7A8FD17
:103720000646002875D05020FFF7A2FD0446002869
:1037300072D05022294600F035FE5B46524649467B
:103740003046E66200F047FC9DF804102060C4F8A3
:10375000349004F1400084F83C7084F8308004F127
:103760000409FFF76FFE4846FFF723FD04F1180038
:10377000FFF71FFD24616462C4F80C80FFF7DEFCD4
:103780002A4A2B4E138801339BB2138013889BB2B5
:10379000012B1CD1B04640460135FFF701FD0A2D33
:1037A00008F11C08F7D1DFF88C80234D4046FFF765
:1037B000F7FC2846FFF7F4FC2048FFF7F1FC204B0C
:1037C000C3F800801F4B1D601F4B1C6007E01E4BA1
:1037D0001A6892F8301094F830209142F5D91C25DF
:1037E00094F83000494605FB0060FFF7E5FC94F8CB
:1037F000300005FB0066338B012B01D1FFF7BCFEC7
:10380000012384F84C30FFF7A1FC064B1B6843F8FA
:10381000274003B0BDE8F08F304603B0BDE8F04F5D
:10382000FFF77CBD8C0C0020900C0020480B002082
:10383000500B00200C0B0020280B00206C0C0020EB
:10384000440B00204C0B0020940C0020014B186806
:10385000704700BF9C0C0020014B1878704700BFD8
:10386000880C0020014B1878704700BF890C00209D
:10387000014B1878704700BF910C0020324B2DE9A6
:10388000F743002B46D0314848B1834242D0C01A9A
:1038900041F2B87398423AD82D4BC01058432D4F7F
:1038A0002D4DC0B2431C387028702C4C0230C0B271
:1038B0002B4E207080003370FFF7DAFC294A10602D
:1038C00028B322780021920000F06CFD1E4CDFF836
:1038D0007C80DFF8949044451ED3234C30782378C5
:1038E000012B08D008236422CDE9003200231F49B0
:1038F0001A46FFF7F9FE23782878012B07D0112309
:1039000000221B49CDE900230923FFF7EDFE03B098
:10391000BDE8F0830020C2E720783B78834211D9CC
:1039200099F80020237B012A0CD0092B0AD8616862
:1039300041B16269102A05D9019222690092A268F8
:10394000FFF7D2FE1834C6E7C44400080C4500084F
:10395000ABAAAAAA880C0020890C0020900C002099
:10396000910C00208C0C0020680C0020FF35000812
:10397000FD3500082DE9F8432F4B304F1D68013508
:103980001D605DB92E4B2F4A1968106818601160D0
:103990001A68128B32BB4FF0FF333B603B68002646
:1039A000AB420AD8DFF89880DFF89C90D8F8003056
:1039B0001B8BE3B94FF0FF333B60FFF707FE1C2280
:1039C000C3B2224802FB0300038B012B2ED9FFF761
:1039D00043FC1F4B186000221D4B01261B6883F817
:1039E0004C2025E01B685B68DB68DB68D5E7D8F80E
:1039F00000305B68DC68E3689D42DDD3201DFFF783
:103A00001BFCA36A1BB104F11800FFF715FC20464C
:103A1000FFF7F9FDD9F8003094F8302093F83030F2
:103A20009A42C3D20A4B01261C60BFE7002ED2D1B6
:103A30003046BDE8F88300BF9C0C00200000002049
:103A4000440B00204C0B0020940C0020500B002055
:103A5000980C002010B5044678B1FFF76FFB2046A4
:103A60000021FFF7EBFDBDE810404FF0E0234FF0E1
:103A70008052C3F8042DFFF769BB10BD08B5FFF7EE
:103A8000A5FD1C220A4B02FB00335B68DA68094B78
:103A90001A601A68084B1A600022084B1A604FF02F
:103AA000FF32074B1A600122064B1A7008BD00BF97
:103AB000500B0020980C0020940C00209C0C00203F
:103AC00000000020680C00202DE9F8432E4D984698
:103AD00004460E461746FFF731FB2B6833B12B4ADD
:103AE0001278A24202D953F8240018B9BDE8F8436D
:103AF000FFF72CBBDFF89890D9F800309842F5D04A
:103B000090F84C304030042B07D0052B2FD0434683
:103B10003A463146FFF79CFCE8E743463A463146D1
:103B2000FFF796FC2B6853F82400836A13B1183012
:103B3000FFF782FB2B6853F82400FFF764FD2B6826
:103B400053F82420D9F8003092F8301093F8303030
:103B50009942CBD20F4B1A6000221B6883F84C208D
:103B60004FF0E0234FF08052C3F8042DBEE74346E8
:103B70003A463146FFF76CFC2B6853F82400436942
:103B8000002BD7D00430D3E78C0C0020900C002001
:103B9000940C0020980C002070B5294D04460E4668
:103BA000FFF7CCFA2B6833B1264A1278A24202D929
:103BB00053F8240018B9BDE87040FFF7C7BA90F871
:103BC0004C304030042B05D0052B2BD03146FFF76D
:103BD00089FCF0E73146FFF785FC2B6853F8240099
:103BE000836A13B11830FFF727FB2B6853F82400C2
:103BF000FFF709FD2B6853F82420134B92F830107F
:103C00001B6893F830309942D5D2104B1A600022CD
:103C10001B6883F84C204FF0E0234FF08052C3F82C
:103C2000042DC8E73146FFF75DFC2B6853F82400EC
:103C30004369002BD1D00430FFF7FEFACDE700BF77
:103C40008C0C0020900C0020940C0020980C00207C
:103C5000F8B5194E0446194FFFF770FA336893F818
:103C60003C203B6853F822004030FFF769FC0546D2
:103C7000F4B1E8B920460121FFF7E0FC01340CBFA4
:103C800004220522336883F84C204FF0E0234FF0E4
:103C90008052C3F8042DFFF759FA336893F83C209B
:103CA0003B6853F82200BDE8F8404030FFF748BCBD
:103CB000FFF74CFA2846F8BD940C00208C0C00202D
:103CC00010B50446FFF73AFAFFF7C0FD236904F187
:103CD000080198428CBF044B044B1868FFF78FFA19
:103CE000BDE81040FFF732BAA80C0020E40C002019
:103CF000084A1368198B084B19B94FF0FF321A6044
:103D000006E0126819685268D26812698A42F6D3CE
:103D1000704700BFE40C0020040000202DE9F047AC
:103D2000DDF820A01D468146884617469DF8246090
:103D3000FFF792FDA84203D800242046BDE8F08793
:103D4000FFF796FDA842F7D0BAF1000F01D1012E7E
:103D5000F2D0FFF7F3F9124A1378072B02D8114873
:103D6000046814B9FFF7F2F9E6E72168013301604E
:103D70001370FFF7EBF984F80490C4F81C806762B5
:103D800084F820503EB1012E07D004F10800FFF75F
:103D900010FA6461D1E7A662F7E7C4F828A0F4E757
:103DA000480E0020A00C002010B50446FFF7C6F90D
:103DB0000A4A13781BB9BDE81040FFF7C7B9084994
:103DC000013B08681370A36920600C60002BF2D0DF
:103DD00004F10800FFF730FAEDE700BF480E0020BD
:103DE000A00C002038B5164A164BD2F834011A60E0
:103DF00000231C4602F12C01072B03F1010312BF23
:103E000041F82C1C01240020082B01F12C01F3D1D6
:103E10000CB1C2F8340100220B4D0C4B0C4C28465F
:103E20001A70FFF7BDF92046FFF7BAF94FF0FF32DD
:103E3000084B1D60084B1C60084B1A6038BD00BF62
:103E4000E80C0020A00C0020AC0C0020480E002044
:103E5000C80C0020E40C0020A80C00200400002066
:103E60002DE9F041FFF7F2FC264F05463B68264E50
:103E700083420BD9254B264A1968106818601160D7
:103E80001B681B8BC3B94FF0FF3333603368AB4201
:103E900008D8DFF87880D8F800301B8B73B94FF062
:103EA000FF33336030683D60401BFFF7D1FE38B30D
:103EB000BDE8F041FFF7ACBA0023E6E7D8F80030E0
:103EC0005B68DC6823699D42EBD304F10800FFF7CF
:103ED000B3F9636A53B19847A36A6BB12B44204688
:103EE0002361FFF7EDFEFFF703FFD4E7E16994F8E4
:103EF0002000FFF751FEEFE72046FFF755FFF2E7FE
:103F0000BDE8F081A40C002004000020E40C002097
:103F1000A80C002038B50D460446FFF797FC28444E
:103F200020612046FFF7CCFEFFF7E2FEFFF7A0FC82
:103F3000BDE838400021FFF72FBE38B5836904463D
:103F4000D3B1FFF783FC054604F10800FFF774F9CD
:103F5000A36A6BB12B4420462361FFF7B1FEFFF744
:103F6000C7FEFFF785FCBDE838400021FFF714BE0F
:103F70002046FFF719FFF2E738BD00BF4FF47A7310
:103F8000B0FBF3F04FF0E02382B00190019A013AC8
:103F90005A6100229A6107221A61D3F8202D22F07B
:103FA0007F42C3F8202DD3F8202D42F08052C3F871
:103FB000202D02B0704706480068006880F308882A
:103FC00062B661B6BFF34F8FBFF36F8F00DF00BFE4
:103FD00008ED00E0704701F18041013900EB8100FC
:103FE00020F0070022F0010240F8082C4FF0807109
:103FF0000E2240F8041C40F80C2C40F8203C4038BD
:10400000704772B6184909680868B0E8F00F80F385
:1040100009884EF00D0E62B670477047EFF30980C5
:1040200028B1203880E8F00F0F49096808600E4871
:104030000E490A680260106890E8F00F203080F3A3
:1040400009884EF0040E7047704708B572B6FFF746
:1040500091FC012802BF4FF0E0234FF08052C3F8DB
:10406000042D62B608BD0000940C0020980C0020BE
:10407000194A936803F00C03082B2AD00C2B03D0A9
:10408000042B1ED1154B12E093681549C3F38343EB
:10409000C85C91689368114A13F4803F114B08BFC4
:1040A00013464343C1F381510131B3FBF1F30A4A93
:1040B0000D499268C2F303128A5CD3400B4A136025
:1040C00070475368C3F342335A1C4FF40043934084
:1040D000EDE7044BEBE700BF003802400024F4009A
:1040E0005844000800127A004844000808000020E4
:1040F00008B52C4B1A6842F480721A6099682A4AF3
:104100000A409A601A6822F0885222F001121A605E
:104110001A6822F480221A609A6822F47D029A605A
:104120000022DA601A6842F480321A606522196847
:10413000890301D4013AFAD11A68900305D4FFF734
:1041400097FF1A4B1A4A9A6008BD1A490A6842F04A
:1041500007020A605A6A42F080525A624FF40062C3
:10416000154B1A605A68D106FCD40E4B9A689A60B7
:104170009A6822F47D029A609A6842F411029A6069
:104180001A6842F080721A601A689201FCD59A6827
:1041900042F003029A60034A936803F00C030C2B6D
:1041A000FAD1CCE7003802400CC0FF8800ED00E0F7
:1041B00000300008003C024000700040FEE708B5F7
:1041C000FFF796FF0B4B0C4A0C498B4209D3002199
:1041D0000B4B0C4A934209D300F04AF800F054F913
:1041E000FEE752F8040B43F8040BEEE743F8041B18
:1041F000F0E700BF000000200C4500080C00002084
:104200000C000020490E0020704700BF032201234C
:1042100030B504684D00AA4024EA020403FA05F50B
:104220002C430460848803FA01F189B2A4B224EA21
:1042300001038380836823EA02038360C36823EA5F
:104240000202C260418330BD38B504460125D4E97D
:1042500000108B8A05FA00F29BB2C34092B2DB07D2
:10426000A0684CBF4A830A83FFF7F4FBEFE7000026
:1042700070B50D4E0D4D761BB61006D0002455F8C6
:10428000043B01349847A642F9D1094E094DFFF786
:10429000BBFF761BB61006D0002455F8043B013452
:1042A0009847A642F9D170BDC4440008C444000830
:1042B000C4440008C4440008844641EA000313F0E3
:1042C000030349D1403A23D30B6803604B68436032
:1042D0008B688360CB68C3600B6903614B69436182
:1042E0008B698361CB69C3610B6A03624B6A43626A
:1042F0008B6A8362CB6AC3620B6B03634B6B436352
:104300008B6B8363CB6BC36340304031403ADBD26D
:1043100030320BD30B6803604B6843608B6883605B
:10432000CB68C36010301031103AF3D20C3205D391
:1043300051F8043B40F8043B043AF9D2043208D067
:10434000D2071CBF11F8013B00F8013B01D30B88D9
:1043500003806046704700BF082A13D38B07B1D093
:1043600010F00303AED0C3F10403D21ADB071CBF65
:1043700011F8013B00F8013BA4D331F8023B20F8CF
:10438000023B9FE7043AD9D3013A11F8013B00F808
:10439000013BF9D20B7803704B7843708B788370B4
:1043A00060467047830730B548D0541E002A3FD07E
:1043B0000346CAB201E0013C3AD303F8012B9D0742
:1043C000F9D1032C2DD9CDB245EA05250F2C45EAAC
:1043D000054536D9A4F1100222F00F0C03F1200E8E
:1043E000E6444FEA121C03F1100242E9045542E987
:1043F000025510327245F8D10CF1010214F00C0F85
:1044000003EB021204F00F0C13D0ACF1040323F001
:1044100003030433134442F8045B9342FBD10CF0D2
:1044200003042CB1CAB21C4403F8012B9C42FBD1FB
:1044300030BD64461346002CF4D1F9E70346144618
:10444000BFE71A46A446E0E70000000000000000B5
:104450000102030406070809030406080C101820CB
:10446000300000000000024002000000C800000010
:104470000000024003000000900100000004024020
:084480000800000064000000C8
:104488000C4A08B5D2F81C380B4843F00303C2F8AD
:104498001C380821FFF7B6FEA0F580600221FFF75F
:1044A800B1FE0321FFF7AEFEFEF756FEFEF764FEEF
:0C44B800FEE700BF00300240000402409C
:1044C4000200000049420008704400080600000091
:1044D4000000000014000000010000004942000830
:1044E40064440008050000000000000014000000FF
:1044F40000000000494200087C4400080400000059
:0845040000000000140000009B
:0C450C00FFFFFFFFFFFFFFFF0048E8017A
:04000005080041BFEF
:00000001FF
