:020000040800F2
:1000000000100020E50F000835100008351000082A
:1000100000000000000000000000000000000000E0
:10002000000000000000000000000000750D000846
:100030000000000000000000A50D0008F90D0008F8
:1000400035100008000000003510000835100008C9
:10005000351000083510000835100008351000086C
:1000600000000000351000083510000835100008A9
:100070003510000835100008351000080000000099
:1000800035100008000000000000000035100008D6
:100090000000000035100008351000083510000879
:1000A00000000000351000080000000035100008B6
:1000B0000000000000000000000000000000000040
:1000C0000448054B10B5834203D0044B002B00D0ED
:1000D000984710BD70000020700000200000000054
:1000E00006480749091A8B10C90FC91810B54910DD
:1000F00003D0044B002B00D0984710BD70000020A7
:10010000700000200000000010B5074C2378002B81
:1001100009D1FFF7D5FF054B002B02D0044800E0C2
:1001200000BF0123237010BD7000002000000000FC
:100130005C220008054B10B5002B03D0044905488C
:1001400000E000BFFFF7CCFF10BDC046000000007C
:10015000740000205C22000872B6024A1388013342
:10016000138070478C000020044A1388013B9BB227
:100170001380002B00D162B67047C0468C0000206F
:1001800010B5064800F0ACFD00F0B4F900F01CF921
:1001900000F00EFD00F008FB10BDC046006CDC0254
:1001A00010B500F0FBFBFF23034A1B0411680B434F
:1001B000136000F0B3FD10BD20ED00E001235B42B1
:1001C000C360031D436083600023038370470023E3
:1001D00003617047038B10B5021D002B08D10A6024
:1001E0004A6041608160016001330861038310BD92
:1001F000846821604C600A608160F5E7038B70B50C
:10020000002B02D1FFF7E6FF70BD8D68041D6A1C4C
:1002100009D18268146801330C6061604A60116022
:1002200008610383F0E722002468A668AE42FAD989
:10023000F0E70369016842684A6011601968814209
:1002400000D11A6000220261188B013880B2188335
:100250007047020003681B6808C2934201D11B6803
:1002600003600368D8687047F0B5274D030029681C
:1002700000290CD1254A2648264C11711460916042
:100280002A608260244A01600131017114600322F6
:1002900003339343181E29D01F4F00203968994219
:1002A00024D31B4A28689268904220D10479002008
:1002B000012C1BD0146800209C4217D31000E61AB2
:1002C0000C30142E1BD91C000C3414190C3E266063
:1002D000002626719668A660002E00D12C600125AC
:1002E0000C391360CB1A157194603B60F0BD146833
:1002F0009C4202D31479012CDCD19268D4E701230B
:10030000091B13713960F1E794000020A40000205C
:10031000980000205408000090000020F7B5274CFA
:100320002168002915D0002813D00B680C33CB1896
:1003300098420ED2224DAB680C33984209D32A0062
:100340002B000C38994208D0834203D11979002937
:1003500006D1F7BD1A009B68F4E78342F9D1F5E7AF
:1003600018481968066801918F1900261E719E6849
:100370000760002E0ED0317900290BD10C3701997E
:10038000076037680C31C9191960B1689960002994
:1003900000D1236011790029DBD1AA42D9D021688C
:1003A000994200D1226001680C310160186811681F
:1003B0009B6809180C3111609360CAE79400002013
:1003C000980000209000002070B5FFF7C5FE104A8D
:1003D000104B11001A609B239B00D058002301266C
:1003E0001C000D0014351F2B0FD00D6001332900A8
:1003F000202BF6D1002C02D09B239B00D050002252
:10040000054B1A70FFF7B0FE70BD34000020EDE719
:100410000809002004090020880B002010B5040002
:10042000FFF79AFE084B1A681C60237C2260012BA0
:1004300002D1E068FFF772FF044A1378013B1370A2
:10044000FFF792FE10BDC04604090020880B002073
:10045000002303604360017243727047F8B50400E3
:100460000D00FFF779FE627A237A934202D8FFF7F4
:100470007BFEF8BD0E4801781F29F8D80D4E0131DA
:10048000336801701F683760002A08D1012123609A
:10049000636061721A6000229D601A74E7E7616808
:1004A00001320B600021636019606272F3E7C0469D
:1004B000880B002004090020427A0300101E08D097
:1004C000186801681960012A04D100221A605A6074
:1004D0005A727047013AFBE70721012381438B40A1
:1004E00010B5C208024CD2B2A15C0B43A35410BD9C
:1004F000890B0020002210B5034B09201A705A7096
:10050000FFF7EAFF10BDC046890B0020072201213A
:100510008243914010B5C308024CDBB2E25C8A43CF
:10052000E25410BD890B0020002030B5094B1A7829
:10053000002A08D00023072101241500CB1A1D41F1
:10054000254203D030BD08300133F0E7013003000D
:100550000B40F2E7890B0020FEE710B500F068FBC6
:10056000FCE70000F8B507001C263037011D040029
:100570003878084D70434019FFF72CFE3878464311
:10058000AD192B8B012B01D1FFF7A6FF01234C34B2
:100590002370F8BDD00B0020F8B5244B244D040087
:1005A0001E6828680F000430FFF743FE002804D1BE
:1005B0002B6830331878FFF7A9FF631C1AD1002F7E
:1005C00018D029681B480431FFF704FE03222B686A
:1005D0004C331A70FFF7A8FFC3B21C2043431648E0
:1005E000C0184368DA68154B1A6000221B684C3348
:1005F0001A70F8BD2B683419DC60A64209D9104B7B
:10060000186829680431FFF7F9FD2B6802224C3382
:10061000DFE70C4B186829680431FFF7EFFD0A4B40
:100620001A68A242F1D91C60EFE7C0461C0D0020F9
:10063000140D0020EC0C0020D00B0020180D002021
:10064000CC0B0020C40B002000000020F0B585B0CA
:100650000093484B05001B6802910392002B7AD04F
:10066000454A1278824276D982009F580192002F23
:1006700071D10B9B9800FFF7F7FD041E6BD0502043
:10068000FFF7F2FD061E00D170E05022390000F0A5
:10069000B3FD029A2000039B0B99F46200F050FB1B
:1006A0000B9B3060736333003C331D7035003000AA
:1006B000009B30352B700A9B4030D9B2341DFFF7B8
:1006C000C7FE2000FFF783FD30001830FFF77FFDE5
:1006D000009B3661F3607662FFF73EFD274A138880
:1006E00001339BB213801388012B36D11C20784331
:1006F000234B01371818FFF761FD0A2FF6D1214F60
:100700003800FFF75BFD2048FFF758FD1F48FFF753
:1007100055FD1F4B1C4A1F601E4B1A601E4B1E606E
:100720001C272878164B784321001818FFF752FD34
:100730002878134B4743DC19238B012B01D1FFF79A
:10074000CBFE330001224C331A70FFF70DFD094B2D
:10075000019A1B689E5005B0F0BD0F4A13683033F4
:1007600019782B789942DBD81660D9E72000FFF77B
:10077000D5FDF0E70C0D0020100D0020C80B002067
:10078000D00B00208C0B0020A80B0020EC0C0020CC
:10079000C40B0020CC0B0020140D0020014B186866
:1007A0007047C0461C0D0020F7B5304C002C42D0DD
:1007B0002F48002808D084423DD02E4B001B984281
:1007C00038D8C3102C4858432C4B2D4EC0B218704B
:1007D0002C4F431C307002302B4DC0B2387080005B
:1007E0002B70FFF741FD294B1860002822D03A7882
:1007F0000021920000F000FD1D4B9C421DD3244CB3
:1008000028782378012B08D0642301935C3B009364
:10081000002320491A00FFF719FF184B1878237896
:10082000012B07D01123002201931B490092083BA2
:10083000FFF70CFFF7BD0020C6E72078337883422E
:1008400012D9134A237B1278012A0DD0092B0BD819
:100850006168002908D06269102A05D901922269CD
:100860000092A268FFF7F2FE1834C5E714220008D0
:100870005C220008B8170000ABAAAAAA090D002044
:10088000080D0020100D0020110D00200C0D00207F
:10089000E80C00205B05000859050008F8B52F4B4F
:1008A0002F4E1D6801351D60002D0CD12D4B2E4A99
:1008B00019681068186011601A68128B002A23D119
:1008C00001235B42336033680027AB4207D8254BD6
:1008D0001A68128B002A1CD101235B423360FFF798
:1008E00023FEC3B21C2043432048C018038B012BB6
:1008F0002FD9FFF7AEFC1E4B186000221C4B0127BE
:100900001B684C331A7026E01B685B68DB68DB6889
:10091000D8E71B685B68DC68E3689D42DED3201D76
:10092000FFF787FCA36A002B03D020001830FFF7E5
:1009300080FC2000FFF716FE22000E4B30321B68B1
:10094000127830331B789A42C1D2094B01271C60C0
:10095000BDE7012FD1D03800F8BDC0461C0D0020E6
:1009600000000020C40B0020CC0B0020D00B002086
:10097000180D0020140D002010B5041E0BD0FFF739
:10098000EBFB00212000FFF707FE8022024B5205FF
:100990001A60FFF7E9FB10BD04ED00E010B5FFF7AA
:1009A000C3FD1C2343430948C0184368DA68084B59
:1009B0001A601A68074B1A600022074B1A60074B2F
:1009C000013A1A60064B02321A7010BDD00B00209B
:1009D000180D0020140D00201C0D00200000002028
:1009E000E80C002070B504000E00FFF7B5FB264DA3
:1009F0002B68002B07D0254A1278A24203D9A40005
:100A00001859002802D1FFF7AFFB70BD03004C332B
:100A10001B784030042B05D0052B28D03100FFF780
:100A20001DFDF0E73100FFF719FD2B681859836AA7
:100A3000002B02D01830FFF7FCFB2B681859FFF78A
:100A400091FD2B681A59124B11001B68303130335D
:100A500009781B789942D6D20E4B1A6000221B6887
:100A60004C331A7080220C4B52051A60CBE73100D0
:100A7000FFF7F4FC2B6818594369002BD5D00430DC
:100A8000FFF7D7FBD1E7C0460C0D0020100D00206A
:100A9000140D0020180D002004ED00E0F8B505004D
:100AA000FFF75AFB194E1A4F33683A683C331B78EC
:100AB0009B0098584030FFF7FFFC0400002D21D028
:100AC00000281FD101212800FFF766FD6B1C15D1FE
:100AD000042233684C331A7080220E4B52051A6080
:100AE000FFF742FB33683A683C331B789B00985809
:100AF0004030FFF7E1FC04002000F8BD3368052218
:100B00004C33E8E7FFF730FBF6E7C046140D002052
:100B10000C0D002004ED00E010B50400FFF71CFBF5
:100B2000FFF73CFE210023690831984206D9044BA7
:100B30001868FFF763FBFFF717FB10BD014BF7E7E2
:100B4000280D0020640D0020084A1368198B084BFB
:100B5000002903D1012252421A6006E01268196886
:100B60005268D26812698A42F6D37047640D002039
:100B70000400002010B50400FFF7EEFA0A4A1378CB
:100B8000002B02D1FFF7F0FA10BD0849013B0868BD
:100B90001370A36920600C60002BF3D02000083094
:100BA000FFF747FBEEE7C046C80E0020200D0020EF
:100BB000174B184A70B513601A00FC32906B002274
:100BC0001900140001260D002C35072A1CD00D60D9
:100BD00001322900082AF6D1002C01D0FC33986399
:100BE00000220D4D0D4B28001A70FFF7E7FA0C4C50
:100BF0002000FFF7E3FA01220A4B52421D600A4B24
:100C00001C600A4B1A6070BD34000020E0E7C0464B
:100C1000680D0020200D00202C0D0020C80E0020A3
:100C2000480D0020640D0020280D00200400002045
:100C3000F8B5FFF7B3FD264F05003B68254E83420C
:100C40000BD9254B254A19681068186011601B687C
:100C50001B8B002B16D1013B33603368AB4207D8A6
:100C60001D4B1A68128B002A0ED101235B423360A0
:100C700030683D60401BFFF711FF002801D0FFF7EF
:100C8000CDFBF8BD0023E7E71B685B68DC682369E0
:100C90009D42ECD320000830FFF7CBFA636A002BAB
:100CA0000BD09847A36A002B0DD05B19200023615D
:100CB000FFF732FFFFF748FFD2E7631CD87FE169F7
:100CC000FFF790FEEEE72000FFF754FFF2E7C04683
:100CD000240D002004000020640D0020280D0020B9
:100CE00007B5FA21890001F0E7F80190019A094B54
:100CF000013A5A6000229A6007321A60064A136865
:100D00001B021B0A1360802311681B060B43136030
:100D100007BDC04610E000E020ED00E00648006896
:100D2000006880F3088862B661B6BFF34F8FBFF3E7
:100D30006F8F00DFC046000008ED00E07047C0463E
:100D400010B50B4C091989004018072180248843ED
:100D5000011F64040C6001240439A2430A600200EC
:100D60000E210C3A1160143A4038136010BDC04691
:100D7000FFFFFF3F72B60949096808681030F0C8E4
:100D800080F30988A046A946B246BB462038F0C881
:100D900070460D210843864662B67047140D002048
:100DA0007047C046EFF3098000280AD02038F0C011
:100DB000A046A946B246BB46F0C020380B49096898
:100DC00008600A480A490A68026010681030F0C8D2
:100DD00080F30988A046A946B246BB462038F0C831
:100DE00070460D210843864670470000140D002010
:100DF000180D00207047C04610B572B6FFF74EFDC3
:100E0000012803D18022024B52051A6062B610BD40
:100E100004ED00E00122174B10B519680A431A606F
:100E2000022219681142FCD01121134A11605A683C
:100E300012490A405A60A022596892030A435A6034
:100E40008022196852040A431A60802292041968A9
:100E50001142FCD003215A688A43110002220A433E
:100E60000C215A605A680A40082AFBD100F088F821
:100E700010BDC04600100240002002400CF8C2FF26
:100E800080230A4A9B0251690B4353619023DB057F
:100E90001A6807490A401A608022196852000A43FA
:100EA0001A60802252039A617047C04600100240C7
:100EB000FFFCFFFF90231022DB055969114201D08E
:100EC000802252039A6170478022154B9202596921
:100ED0000A435A6180229969D2010A439A61902398
:100EE000DB051A680F490A401A60A02219689203AC
:100EF0000A431A605A6A0C490A405A628822596A9F
:100F000052000A435A620022084B1A605A609A60E3
:100F1000A222FF32DA60953AFF3A1A607047C04663
:100F200000100240FFFFC3FF0FF0FFFF0038014039
:100F300010B5FFF76FFFFFF7A3FFFFF7C5FF10BD69
:100F4000024BD8690006C00F7047C0460038014008
:100F500010B50400FFF7F4FF0028FBD0014BA4B24A
:100F60001C8510BD0038014010B5041E03D110BD12
:100F70000134FFF7EDFF20780028F9D1F7E770473B
:100F80000C2270B5124E134D73681340082B0AD013
:100F9000114B2B607368114A1B061B0FD35C2A6828
:100FA000DA402A6070BD0F2374687268A40C1C407C
:100FB000F16A0234D20307D519400748013100F025
:100FC0007BFF44432C60E5E7054B5C43FAE7C046F2
:100FD000001002400800002000127A00D01F000814
:100FE00000093D000D488546FFF7C9FF0C480D4933
:100FF0000D4A002302E0D458C4500433C4188C4274
:10100000F9D30A4A0A4C002301E013600432A242D9
:10101000FBD300F07DF800F021F8FEE7001000207F
:1010200000000020700000205C22000870000020FA
:10103000DC0E0020FEE70FB400B5A3B024AB04CB58
:10104000802102A8019300F02BF97F2802D802A882
:10105000FFF78AFF23B008BC04B0184713B5FFF7A9
:1010600067FF174C2000FFF7E6FF1648FFF7E3FF86
:101070001548FFF7E0FF1548FFF7DDFF1448FFF7BD
:10108000DAFF1448FFF7D7FF2000FFF7D4FF124C18
:1010900012482100FFF7CFFFFFF772F8002301226B
:1010A000009321000E48FFF7C6FF21000D48FFF70F
:1010B000C2FF21000C48FFF7BEFFFFF771F8FEE703
:1010C000D3200008E01F0008FE1F00081C200008B5
:1010D0003A20000858200008762000087B200008ED
:1010E0008B200008A6200008BD20000810B50400D1
:1010F000FFF7E0FE226804490448FFF79CFF6068A0
:10110000FFF73AFCF4E7C046142100081F2100084D
:1011100070B50C4D0C4E761BB61005D0002408CDD2
:1011200001349847A642FAD101F064F8074D084E01
:10113000761BB61005D0002408CD01349847A6428E
:10114000FAD170BD0C2200080C2200080C22000805
:1011500010220008F0B5C64600B50F2A41D9032772
:101160000D003E0005430C0003002E402F423DD1F0
:101170001500103D2D09A8462D01AC468444276872
:101180001D001F6067685F60A7689F60E768103494
:10119000DF6010336545F2D145460F230C2401353D
:1011A0002D01491913404519144222D08C59AC51D4
:1011B00004369C1B032CF9D8043B9B0801339B008D
:1011C000ED18C91803231A40561E002A06D0002322
:1011D000CC5C1A00EC5401339642F9D180BCB8467D
:1011E000F0BD0500561E002AF1D1F7E70500561E96
:1011F000EDE71A00F6E7C046F0B50500830749D0D1
:10120000541E002A45D003000326CAB202E001356D
:10121000013C3ED301332A703342F8D1032C30D93C
:10122000FF220A40150215432A0415430F2C34D916
:101230002700103F3F093E01B4461E001A00103639
:101240006644156055609560D5601032B242F8D1A1
:1012500001373F01DB190F270C22274022403C00B9
:10126000002A0ED03E1FB608B400A4461A001C1D6A
:10127000644420C2A242FCD103240136B6009B196B
:101280003C40002C05D0C9B21C19197001339C4296
:10129000FBD1F0BD03001400C0E72700E2E7C04621
:1012A00070B5194C9AB02468002928DB82256E4657
:1012B000AD00B58100900490002911D00139029150
:1012C000059101214942F1812000694600F04CF965
:1012D000431C01DA8B2323600023009A13700CE077
:1012E0000291059101214942F1812000694600F0F7
:1012F0003BF9431C01DA8B2323601AB070BD8B23AA
:10130000012023604042F8E70C00002030B51400B3
:1013100005001A009BB0002C2ADB822368469B0044
:10132000838100910491002C12D001235B42013C87
:10133000C38169461E9B28000294059400F014F9AD
:10134000431C01DA8B232B600023009A13700DE0FD
:1013500001235B42C38169461E9B280002940594C9
:1013600000F002F9431C01DA8B232B601BB030BD67
:101370008B23036001204042F8E7C046F0B5D64613
:101380004F464646C0B58F6882460C0016001D00C9
:101390009F423BD890228B89D200134212D13D004C
:1013A00008682A00310000F019FCA3680020DF1B48
:1013B0002368A7609C4665442560E0BCBA46B146F8
:1013C000A846F0BD096922686069521A9146420038
:1013D0001218D00F8218681C521048449046904250
:1013E00001D9804602005B0513D51100504600F07C
:1013F000ABFC071E21D04A462169FFF7ABFEA3894B
:10140000134A134080221343A38107E01F0008689A
:10141000C7E7504600F0FAFC071E0AD038004346E2
:101420004A46484463619B1A276120602F00A360ED
:10143000B7E75046216900F027FC0C2352461360A1
:1014400040220120A38940421343A381B5E7C0464F
:101450007FFBFFFFF0B54E464546DE465746E0B5FA
:10146000936883B00D0091460190002B6AD01768F5
:1014700008688C6843E09022AB89D20013422ED0DA
:101480002969421A9346686942001218D00F8218DF
:10149000701C521058449046904201D98046020078
:1014A0008020C000034236D01100019800F04CFCAF
:1014B000041E52D05A462969FFF74CFEAB89294ACF
:1014C000134080221343AB81434620005A462C61CF
:1014D000B046340058446B619B1A2860AB604246AA
:1014E000514600F07BFBAB6828681C1B4B469B6891
:1014F00040449E1B4B46AC6028609E6022D03B68F7
:101500007E689A460837002EF9D0A046B442B2D978
:101510003400B046E3E7019800F078FC041ED3D114
:10152000019C2969200000F0AFFB0C2323604022BE
:10153000AB8901201343AB814A46002340429360AC
:10154000536003E000234A460020536003B0F0BC20
:10155000BB46B246A946A046F0BD0C23019A1360D3
:10156000E5E7C0467FFBFFFFF0B5DE465746454640
:101570004E46E0B51C008B8982468B4690469DB056
:101580001B0603D50B69002B00D1EDE0002304AD51
:101590006B6120336B761033AB7643461B787C4E01
:1015A0000394002B74D0444604E063780134002B8C
:1015B00000D17AE0252BF8D14346E71A444500D004
:1015C00077E02378002B63D00122002352426A6027
:1015D0004432671C2B60EB60AB60AB54AB6506E03C
:1015E0000123801B83402A68013713432B600522A7
:1015F0003000397800F0B8FA0028F1D12B68DA060B
:1016000002D543222021A9541A0702D543222B21B7
:10161000A95439782A2958D1039A111D12680391C7
:10162000002A00DA7CE0EA6079787C1C2E295FD001
:10163000584B03221800984600F096FA002807D06D
:101640004346C01A402383402A68013413432B6069
:101650002178631C062250489846297600F084FAC7
:10166000002863D04D4B002B53D003AB00935A4658
:10167000290050464A4B00E000BF81464B460133EB
:1016800006D06B694B446B6143461B78002B8AD1B3
:101690005B469B895B0600D572E068691DB0F0BCB3
:1016A000BB46B246A946A046F0BD4346E71A4445AC
:1016B000EED03B00424659465046FFF75FFE431CC2
:1016C000E6D06B69DB196B617BE7080030380928CD
:1016D0000BD8EB689A00D31879785B001B180800C8
:1016E000303801370928F5D9EB603C002E299FD10D
:1016F00061782A2924D1039BA01C1A1D1B68039220
:101700006B60002B02DA01235B426B60A17804005E
:101710008EE70722039B0733934308330393B0E715
:101720005242EA60022213432B607DE703AB009331
:101730005A46290050461A4B00F0D2F881469DE7E0
:1017400008000023303801346B60092800D96FE7A6
:101750009A00D31861785B001B18080030380134F8
:101760000928F5D96B6063E7402100F0EDFA5B468C
:1017700018601861002806D040235A46536105E7D7
:10178000012040428AE70C2352460138136085E766
:10179000342100083C21000840210008000000001E
:1017A0007D130008F8B557464E46DE464546E0B57F
:1017B0001F000A9B924699460A698B6806000C0036
:1017C0009A4200DA1A0053461A604323E35C002B66
:1017D00002D0514601320A6021688A065ED553461E
:1017E000524606201B680233136021680A00084233
:1017F00009D1E268D31A192293460022A3449046E5
:101800000A00002B42DC4323E35C591E8B41920605
:101810000AD53020E1184331087045215A1C615C1B
:10182000A2184332023311702200390030004332D3
:10183000C847431C19D0062322681340042B33D019
:10184000A368226993423DDD002188469B1A984493
:1018500000251A3402E00135454533DA0123220020
:1018600039003000C847431CF5D101204042F0BC8C
:10187000BB46B246A946A046F8BD01239C46534646
:10188000E2681B68E044D51A454520DD01235A462D
:1018900039003000C847431CEFD1E6E706220A4270
:1018A00012D05A1E9341BFE753461968E368226974
:1018B000591ACB43DB170B409846A3689342C5DC0B
:1018C0000029C5DC0020D2E753461B6891E743237B
:1018D0002268E35C591E8B4192069AD4A4E7C04665
:1018E000F0B54E46994643239C4657464546DE464C
:1018F0008C446346E0B587B003930C00097E9046A4
:101900000700109A002914D00B00583BDBB2202BA3
:101910004BD892489B00C3589F462368190602D4AF
:101920005B0600D501E11368191D11601B6862692F
:101930001A600023039D23614B4621000093380069
:10194000434605AAFFF72EFF431C1FD023692A0038
:1019500041463800C847431C18D023689B071ED552
:10196000E36805981A1A002A1BDD2600002519369F
:1019700005E0E368059801351A1AAA4211DD012332
:10198000320041463800C847431CF2D10120404292
:1019900007B0F0BCBB46B246A946A046F0BDE3681E
:1019A00005989842F4DA1800F2E742232500E15442
:1019B000413B4235236143230022E254BCE72368C4
:1019C000190602D4590600D5BBE01168081D106045
:1019D0000A681600002A75DB614B9B460A239A466B
:1019E0004DE02368180602D45B0600D5A4E0136816
:1019F000181D10601E685A4B9B466F2900D1A7E046
:101A00000A239A4638E013682500191D11601A68E8
:101A10004223E254413B42352361CCE71368191D50
:101A200011601D6800212800626800F09DF8002800
:101A300000D190E0401B60602061BCE7202321685A
:101A40000B43236045217820605446498B46190694
:101A500031D459062FD51168081D0E881060DA0799
:101A600002D520221343236010239A46002E03D16F
:101A7000226810339A43226043230022E2546368B1
:101A8000A360002B48DB0422216891432160002ED3
:101A900027D1002B42D1039D5346082B31D0039B05
:101AA0005B1B236148E745235821E15423682C49F7
:101AB0008B461906CDD51168081D10600E68CEE75B
:101AC0002368BFE743222D21A15462687642A260B9
:101AD000002A02DB042293432360214B9B460A2306
:101AE0009A46039D3000514600F06CFA5B465B5C01
:101AF000013D2B70330006005345F3D25346082BAB
:101B0000CDD12368DB07CAD5636822699342C6DC5E
:101B10003023013D2B70C2E7002EE2D15B46250049
:101B20001A7842234235E254B6E713686169181DFA
:101B300010601B681980FCE61368181D1E88106071
:101B400059E71168081D106000228E5E320041E7DF
:101B500008239A4690E7606820612CE7702100080E
:101B6000482100085C21000870B5CCB283070DD075
:101B7000531E002A0FD0032504E00130284206D06E
:101B8000013B08D30278A242F7D170BD1300032BAA
:101B90000CD8002B01D10020F7E7C31802E0013078
:101BA0008342F8D00278A242F9D1EEE7FF2529401E
:101BB0000D0229430D04074E0D43026806496A4091
:101BC000511891433142E8D1043B0430032BF4D83F
:101BD000DFE7C04680808080FFFEFEFEF0B58842D1
:101BE0000AD98B18984207D2531E002A03D0CA5C28
:101BF000C254013BFBD2F0BD0F2A0BD80500561E84
:101C0000002AF8D00023CC5C1A00EC540133964231
:101C1000F9D1F0E703270D003E0005430C00030057
:101C20002E402F422BD11500103D2D09AC462F011F
:101C30003F1825681D6065685D60A5689D60E56862
:101C40001034DD601D001033BD42F2D165460F2314
:101C50000C2401352D01491913404519144211D0A6
:101C60008C59AC5104369C1B032CF9D8043B9B08BF
:101C700001339B00ED18C91803231A40BFE7050084
:101C8000561EBFE71A00BAE770B50500002915D047
:101C90000C1F2368002B23DB280000F0F1F8294AF1
:101CA0001368002B05D0A3420BD92168601883422A
:101CB0002DD063602800146000F0E4F870BDA342EA
:101CC00010D81A005B68002BF9D1106811188C42EB
:101CD00019D030D363605460280000F0D3F8EDE7EA
:101CE000E418D9E711685018A04217D023D821680A
:101CF00060188342EED118685B68844661442160B5
:101D000063605460E8E7236818181060E4E7186817
:101D10005B688446614421606360CBE720680918F2
:101D2000501811608342D7D118685B6884466144BB
:101D300011605360D0E70C2328002B6000F0A2F85C
:101D4000BCE7C046CC0E0020F8B50323CD1C9D4354
:101D5000083506000C2D27D20C25A94226D83000C4
:101D600000F08EF8284F3A68002A27D0140004E0CB
:101D700063682200002B21D01C0023685B1BF7D472
:101D80000B2B17D86368944235D05360300000F0B5
:101D900079F8200007220B30231D9043C21A984285
:101DA00007D01B1AA35004E0002DD6DA0C23002024
:101DB0003360F8BD2360E4182560E7E77B68002BFB
:101DC0001BD02900300000F049F8431C0CD003233D
:101DD000C41C9C43A04205D0211A300000F03EF8FC
:101DE000431C01D02560D1E70C233000336000F0A4
:101DF00049F80020DDE73B60C8E70021300000F033
:101E00002DF87860DDE7C046CC0E0020F8B506005E
:101E10000C00150000291BD0002A15D000F034F862
:101E20002700A84201D33800F8BD29003000FFF791
:101E30008BFF071EF7D021002A00FFF78BF9210046
:101E40003000FFF721FFEEE7FFF71EFF0027EAE76C
:101E50001100FFF779FF0700E5E7C046002370B5E2
:101E6000064D040008002B6000F018F8431C00D059
:101E700070BD2B68002BFBD02360F9E7D40E002047
:101E80007047C0467047C0460B1F1B68181F002BC9
:101E900000DB70470B58C018FBE7C046044A03003C
:101EA0001068002802D0C318136070470148FAE791
:101EB000D80E0020DC0E0020002243088B4274D391
:101EC00003098B425FD3030A8B4244D3030B8B423B
:101ED00028D3030C8B420DD3FF22090212BA030C44
:101EE0008B4202D31212090265D0030B8B4219D325
:101EF00000E0090AC30B8B4201D3CB03C01A524145
:101F0000830B8B4201D38B03C01A5241430B8B428C
:101F100001D34B03C01A5241030B8B4201D30B0375
:101F2000C01A5241C30A8B4201D3CB02C01A52419C
:101F3000830A8B4201D38B02C01A5241430A8B425F
:101F400001D34B02C01A5241030A8B4201D30B0248
:101F5000C01A5241CDD2C3098B4201D3CB01C01A62
:101F6000524183098B4201D38B01C01A524143096C
:101F70008B4201D34B01C01A524103098B4201D35A
:101F80000B01C01A5241C3088B4201D3CB00C01AC7
:101F9000524183088B4201D38B00C01A524143083F
:101FA0008B4201D34B00C01A5241411A00D2014664
:101FB000524110467047FFE701B5002000F006F8D7
:101FC00002BDC0460029F7D076E770477047C0468B
:101FD00000000000000000000102030406070809D9
:101FE000202020205F202020205F20205F5F2020F5
:101FF0005F5F5F20205F5F5F5F20200D0A00202071
:10200000202F205C20207C207C2F202F202F205F61
:10201000205C2F205F5F5F7C200D0A0020202F2096
:102020005F205C207C2027202F207C207C207C20AF
:102030005C5F5F5F205C200D0A00202F205F5F5FE8
:10204000205C7C202E205C207C207C5F7C207C5FC0
:102050005F5F29207C0D0A002F5F2F2020205C5F0E
:102060005C5F7C5C5F5C205C5F5F5F2F7C5F5F5FC1
:102070005F2F200D0A004D41494E005B25735D091D
:10208000496E6974204253500D0A005B25735D0947
:10209000496E697420414B4F53207625752E257566
:1020A0002E25750D0A005B25735D094578616D70FD
:1020B0006C653A205448524541440D0A005B257333
:1020C0005D095374617274207363686564756C652F
:1020D000720D0A0D0A00424C494E4B203430304DEF
:1020E0005300424C494E4B203230304D5300424C4D
:1020F000494E4B203130304D53000000EE20000897
:1021000064000000E2200008C8000000D62000089B
:10211000900100005441534B20424C494E4B005B10
:1021200025735D09257320746F67676C65204C45C6
:10213000440D0A00232D302B20000000686C4C0059
:1021400065666745464700003031323334353637EF
:1021500038394142434445460000000030313233B3
:1021600034353637383961626364656600000000D3
:10217000A61A0008AA190008AA190008AA19000836
:10218000AA190008AA190008AA190008AA19000823
:10219000AA190008AA190008AA190008061A0008B6
:1021A000BE190008AA190008AA190008AA190008EF
:1021B000AA190008BE190008AA190008AA190008DF
:1021C000AA190008AA1900081A190008E21900083B
:1021D0003C1A0008AA190008AA1900081C1A0008CD
:1021E000AA190008E2190008AA190008AA1900088B
:1021F000C01A0008F8B5C046F8BC08BC9E46704737
:0C220000F8B5C046F8BC08BC9E4670470C
:04220C003501000890
:0422100009010008B8
:1022140002000000ED1000080C2100080600000078
:10222400000000008000000001000000ED10000824
:1022340004210008050000000000000080000000E8
:1022440000000000ED100008FC200008040000005D
:08225400000000008000000002
:10225C00FFFFFFFFFFFFFFFF00127A0010000020BE
:10226C000000000000000000000000000000000062
:10227C000000000000000000000000000000000052
:10228C000000000000000000000000000000000042
:10229C000000000000000000000000000000000032
:1022AC000000000000000000000000000000000022
:1022BC000000000000000000000000000000000012
:0400000508000FE5FB
:00000001FF
