:020000040800F2
:1000000000100020C910000819110008191100087B
:1000100000000000000000000000000000000000E0
:100020000000000000000000000000004D0F00086C
:1000300000000000000000007D0F0008D10F000844
:10004000191100080000000019110008191100081A
:1000500019110008191100081911000819110008D8
:1000600000000000191100081911000819110008FA
:1000700019110008191100081911000800000000EA
:10008000191100080000000000000000191100080C
:1000900000000000191100081911000819110008CA
:1000A00000000000191100080000000019110008EC
:1000B0000000000000000000000000000000000040
:1000C0000448054B10B5834203D0044B002B00D0ED
:1000D000984710BD08000020080000200000000024
:1000E00006480749091A8B10C90FC91810B54910DD
:1000F00003D0044B002B00D0984710BD080000200F
:10010000080000200000000010B5074C2378002BE9
:1001100009D1FFF7D5FF054B002B02D0044800E0C2
:1001200000BF0123237010BD080000200000000064
:10013000AC140008054B10B5002B03D0044905484A
:1001400000E000BFFFF7CCFF10BDC046000000007C
:100150000C000020AC14000872B6024A1388013368
:100160001380704724000020044A1388013B9BB28F
:100170001380002B00D162B67047C04624000020D7
:1001800010B5064800F098FE00F0FEF900F01CF9EA
:1001900000F0FCFD00F05EFB10BDC046006CDC0210
:1001A00010B500F03FFCFF23034A1B0411680B430A
:1001B000136000F09FFE10BD20ED00E001235B42C4
:1001C000C360031D436083600023038370470023E3
:1001D00003617047038B10B5021D002B08D10A6024
:1001E0004A6041608160016001330861038310BD92
:1001F000846821604C600A608160F5E7038B70B50C
:10020000002B02D1FFF7E6FF70BD8D68041D6A1C4C
:1002100009D18268146801330C6061604A60116022
:1002200008610383F0E722002468A668AE42FAD989
:10023000F0E70369016842684A6011601968814209
:1002400000D11A6000220261188B013880B2188335
:100250007047020003681B6808C2934201D11B6803
:1002600003600368D8687047F0B5274D030029681C
:1002700000290CD1254A2648264C11711460916042
:100280002A608260244A01600131017114600322F6
:1002900003339343181E29D01F4F00203968994219
:1002A00024D31B4A28689268904220D10479002008
:1002B000012C1BD0146800209C4217D31000E61AB2
:1002C0000C30142E1BD91C000C3414190C3E266063
:1002D000002626719668A660002E00D12C600125AC
:1002E0000C391360CB1A157194603B60F0BD146833
:1002F0009C4202D31479012CDCD19268D4E701230B
:10030000091B13713960F1E72C0000203C0000202C
:1003100030000020F405000028000020F7B5274C2D
:100320002168002915D0002813D00B680C33CB1896
:1003300098420ED2224DAB680C33984209D32A0062
:100340002B000C38994208D0834203D11979002937
:1003500006D1F7BD1A009B68F4E78342F9D1F5E7AF
:1003600018481968066801918F1900261E719E6849
:100370000760002E0ED0317900290BD10C3701997E
:10038000076037680C31C9191960B1689960002994
:1003900000D1236011790029DBD1AA42D9D021688C
:1003A000994200D1226001680C310160186811681F
:1003B0009B6809180C3111609360CAE72C0000207B
:1003C000300000202800002070B5FFF7C5FE104B5C
:1003D000104A190013601A008C321068002201269E
:1003E00014000D001435072A0ED00D6001322900CB
:1003F000082AF6D1002C01D08C3318600022064B5D
:100400001A70FFF7B1FE70BD34000020EEE7C04661
:10041000400600203C060020E006002010B5040045
:10042000FFF79AFE084B1A681C60237C2260012BA0
:1004300002D1E068FFF772FF044A1378013B1370A2
:10044000FFF792FE10BDC0463C060020E0060020EB
:10045000002303604360017243727047F7B50500E3
:100460001E0001920091FFF777FE6A7A2B7A9A427A
:1004700002D3FFF779FEF7BD194B1B78072BF8D88D
:10048000184F01333C683000226826713A60144AE4
:10049000137001232374009BA360FFF7E5FEE06067
:1004A000002808D13B680E4A23600D4B3C601B7846
:1004B000013B1370DDE73200019900F097FE6B7A83
:1004C000002B05D101222C606C606A722360D0E79A
:1004D0006A680133146000226C6022606B72C8E7A6
:1004E000E00600203C060020F8B504000D00FFF7F0
:1004F00033FE627A237A934202D8FFF735FEF8BDC5
:100500000E4801780729F8D80D4E01313368017083
:100510001F683760002A08D101212360636061727F
:100520001A6000229D601A74E7E7616801320B606F
:100530000021636019606272F3E7C046E0060020A4
:100540003C060020427A0300101E08D0186801689B
:100550001960012A04D100221A605A605A72704749
:10056000013AFBE703790B70C0687047072101234C
:1005700081438B4010B5C208024CD2B2A15C0B4340
:10058000A35410BDE1060020002210B5034B092042
:100590001A705A70FFF7EAFF10BDC046E10600204E
:1005A000072201218243914010B5C308024CDBB2FF
:1005B000E25C8A43E25410BDE1060020002030B521
:1005C000094B1A78002A08D00023072101241500BE
:1005D000CB1A1D41254203D030BD08300133F0E76E
:1005E000013003000B40F2E7E1060020FEE710B502
:1005F00000F0F8FBFCE70000F8B507001C263037D8
:10060000011D04003878084D70434019FFF7E2FDE2
:1006100038784643AD192B8B012B01D1FFF7A6FF8C
:1006200001234C342370F8BD28070020F8B5244B73
:10063000244D04001E6828680F000430FFF7F9FD00
:10064000002804D12B6830331878FFF7A9FF631C0A
:100650001AD1002F18D029681B480431FFF7BAFDC2
:1006600003222B684C331A70FFF7A8FFC3B21C207B
:1006700043431648C0184368DA68154B1A600022D5
:100680001B684C331A70F8BD2B683419DC60A64225
:1006900009D9104B186829680431FFF7AFFD2B68A2
:1006A00002224C33DFE70C4B186829680431FFF74E
:1006B000A5FD0A4B1A68A242F1D91C60EFE7C046BB
:1006C000740800206C08002044080020280700203F
:1006D00070080020240700201C07002000000020D4
:1006E000F0B585B00093484B05001B68029103925A
:1006F000002B7AD0454A1278824276D982009F58E0
:100700000192002F71D10B9B9800FFF7ADFD041EE5
:100710006BD05020FFF7A8FD061E00D170E05022DC
:10072000390000F0B5FD029A2000039B0B99F4629A
:1007300000F0F2FB0B9B3060736333003C331D70A1
:1007400035003000009B30352B700A9B4030D9B209
:10075000341DFFF77DFE2000FFF739FD3000183013
:10076000FFF735FD009B3661F3607662FFF7F4FC1E
:10077000274A138801339BB213801388012B36D18B
:100780001C207843234B01371818FFF717FD0A2F59
:10079000F6D1214F3800FFF711FD2048FFF70EFD7D
:1007A0001F48FFF70BFD1F4B1C4A1F601E4B1A60B2
:1007B0001E4B1E601C272878164B78432100181802
:1007C000FFF708FD2878134B4743DC19238B012BD7
:1007D00001D1FFF7CBFE330001224C331A70FFF733
:1007E000C3FC094B019A1B689E5005B0F0BD0F4A2F
:1007F0001368303319782B789942DBD81660D9E723
:100800002000FFF78BFDF0E7640800206808002057
:100810002007002028070020E40600200007002011
:10082000440800201C070020240700206C0800203A
:10083000014B18687047C04674080020014B1878B7
:100840007047C04660080020014B18787047C046CA
:1008500069080020F7B5304C002C42D02F48002802
:1008600008D084423DD02E4B001B984238D8C3108C
:100870002C4858432C4B2D4EC0B218702C4F431CA3
:10088000307002302B4DC0B2387080002B70FFF7F3
:10089000EBFC294B1860002822D03A780021920006
:1008A00000F0F6FC1D4B9C421DD3244C2878237885
:1008B000012B08D0642301935C3B00930023204963
:1008C0001A00FFF70DFF184B18782378012B07D07B
:1008D0001123002201931B490092083BFFF700FF00
:1008E000F7BD0020C6E720783378834212D9134A37
:1008F000237B1278012A0DD0092B0BD861680029BF
:1009000008D06269102A05D9019222690092A26872
:10091000FFF7E6FE1834C5E77C140008AC140008A5
:10092000B8170000ABAAAAAA61080020600800203E
:1009300068080020690800206408002040080020A2
:10094000EF050008ED050008F8B52F4B2F4E1D6888
:1009500001351D60002D0CD12D4B2E4A19681068F1
:10096000186011601A68128B002A23D101235B42A0
:10097000336033680027AB4207D8254B1A68128BC7
:10098000002A1CD101235B423360FFF717FEC3B27C
:100990001C2043432048C018038B012B2FD9FFF79D
:1009A00058FC1E4B186000221C4B01271B684C335F
:1009B0001A7026E01B685B68DB68DB68D8E71B6899
:1009C0005B68DC68E3689D42DED3201DFFF731FCE5
:1009D000A36A002B03D020001830FFF72AFC200068
:1009E000FFF70AFE22000E4B30321B6812783033BC
:1009F0001B789A42C1D2094B01271C60BDE7012F29
:100A0000D1D03800F8BDC046740800200000002096
:100A10001C07002024070020280700207008002061
:100A20006C08002010B5FFF7C9FD1C23434309489B
:100A3000C0184368DA68084B1A601A68074B1A60D6
:100A40000022074B1A60074B013A1A60064B02322C
:100A50001A7010BD28070020700800206C080020C4
:100A6000740800200000002040080020F7B51F0097
:100A7000040000910192FFF76FFB294D2B68002BBA
:100A800007D0284A1278A24203D9A4001859002896
:100A900002D1FFF769FBF7BD234E33689842F8D0C7
:100AA00003004C331B784030042B07D0052B29D092
:100AB0003B00019A0099FFF7D1FCEAE73B00019A5D
:100AC0000099FFF7CBFC2B681859836A1830002B6C
:100AD00023D12B681859FFF78FFD2B681A593368FB
:100AE00011003033303109781B789942D1D20F4B45
:100AF0001A6000221B684C331A7080220C4B52057E
:100B00001A60C6E73B00019A0099FFF7A7FC2B6823
:100B100018594369002BDCD00430FFF78AFBD8E773
:100B200064080020680800206C080020700800207D
:100B300004ED00E070B504000E00FFF70DFB264D3C
:100B40002B68002B07D0254A1278A24203D9A400B3
:100B50001859002802D1FFF707FB70BD03004C3382
:100B60001B784030042B05D0052B28D03100FFF72F
:100B7000BBFCF0E73100FFF7B7FC2B681859836A1C
:100B8000002B02D01830FFF754FB2B681859FFF7E1
:100B900033FD2B681A59124B11001B68303130336A
:100BA00009781B789942D6D20E4B1A6000221B6836
:100BB0004C331A7080220C4B52051A60CBE731007F
:100BC000FFF792FC2B6818594369002BD5D00430ED
:100BD000FFF72FFBD1E7C04664080020680800201B
:100BE0006C0800207008002004ED00E0F8B5050056
:100BF000FFF7B2FA194E1A4F33683A683C331B7844
:100C00009B0098584030FFF79DFC0400002D21D038
:100C100000281FD101212800FFF708FD6B1C15D10A
:100C2000042233684C331A7080220E4B52051A602E
:100C3000FFF79AFA33683A683C331B789B00985860
:100C40004030FFF77FFC04002000F8BD3368052228
:100C50004C33E8E7FFF788FAF6E7C0466C08002057
:100C60006408002004ED00E010B50400FFF774FAFA
:100C7000FFF7DEFD210023690831984206D9044BB5
:100C80001868FFF7BBFAFFF76FFA10BD014BF7E7E3
:100C900080080020BC080020084A1368198B084B04
:100CA000002903D1012252421A6006E01268196835
:100CB0005268D26812698A42F6D37047BC08002095
:100CC00004000020F0B585B01D000AAB80CB019078
:100CD0001E7802910392FFF7B1FDA84203D80024C9
:100CE000200005B0F0BDFFF7AFFDA842F7D0002F00
:100CF00001D1012EF3D0FFF72FFA134A1378012BFD
:100D000003D812490C68002C02D1FFF72DFAE6E750
:100D10002068013313700860FFF726FA019B2371E6
:100D2000029BE361039B6362631CDD77002E07D0A7
:100D3000012E07D020000830FFF749FA6461CFE7A1
:100D4000A662F7E7A762F5E71809002078080020F7
:100D500010B50400FFF700FA0A4A1378002B02D1FD
:100D6000FFF702FA10BD0849013B08681370A36938
:100D700020600C60002BF3D020000830FFF759FAF8
:100D8000EEE7C04618090020780800200D4B0E4AF7
:100D900070B513601A002C321A6000220B4DDA6213
:100DA0000B4B28001A70FFF709FA0A4C2000FFF7D6
:100DB00005FA0122084B52421D60084B1C60084B8B
:100DC0001A6070BDC0080020780800208408002048
:100DD00018090020A0080020BC080020800800207E
:100DE00004000020F8B5FFF723FD264F05003B68FF
:100DF000254E83420BD9254B254A19681068186087
:100E000011601B681B8B002B16D1013B33603368CC
:100E1000AB4207D81D4B1A68128B002A0ED1012352
:100E20005B42336030683D60401BFFF7DFFE002807
:100E300001D0FFF7F3FAF8BD0023E7E71B685B6812
:100E4000DC6823699D42ECD320000830FFF7F1F9FC
:100E5000636A002B0BD09847A36A002B0DD05B1957
:100E600020002361FFF700FFFFF716FFD2E7631CA6
:100E7000D87FE169FFF75EFEEEE72000FFF768FF2D
:100E8000F2E7C0467C08002004000020BC080020D7
:100E90008008002070B50D000400FFF7C9FC401960
:100EA00020612000FFF7E0FEFFF7F6FEFFF7CCFC25
:100EB0000021FFF73FFE70BD07B5FA21890000F061
:100EC0003BFA0190019A094B013A5A6000229A605C
:100ED00007321A60064A13681B021B0A136080233C
:100EE00011681B060B43136007BDC04610E000E00D
:100EF00020ED00E006480068006880F3088862B6CC
:100F000061B6BFF34F8FBFF36F8F00DFC0460000A5
:100F100008ED00E07047C04610B50B4C0919890078
:100F20004018072180248843011F64040C600124B9
:100F30000439A2430A6002000E210C3A1160143AEF
:100F40004038136010BDC046FFFFFF3F72B609492D
:100F5000096808681030F0C880F30988A046A946DF
:100F6000B246BB462038F0C870460D21084386467D
:100F700062B670476C0800207047C046EFF30980E6
:100F800000280AD02038F0C0A046A946B246BB4689
:100F9000F0C020380B49096808600A480A490A6805
:100FA000026010681030F0C880F30988A046A94696
:100FB000B246BB462038F0C870460D21084386462D
:100FC000704700006C080020700800207047C04681
:100FD00010B572B6FFF7B8FC012803D18022024B8E
:100FE00052051A6062B610BD04ED00E080230F4A7E
:100FF0009B0251690B4353619023DB051A680C492E
:101000000A401A60802218685200024310201A60B9
:101010005A6882435A609A680A409A60DA680A40BD
:10102000DA60802252039A617047C0460010024085
:10103000FFFCFFFF10B5FFF7D9FF10BD01221E4BCB
:1010400019680A431A60022219681142FCD0032170
:101050005A688A435A600C2259681142FCD11A68B6
:1010600016490A401A608022920419681142FCD184
:101070001121134A11605A6812490A405A60A0228D
:10108000596892030A435A608022196852040A433D
:101090001A608022920419681142FCD003215A6818
:1010A0008A43110002220A430C215A605A680A40FE
:1010B000082AFBD17047C04600100240FFFFFFFE28
:1010C000002002400CF8C2FF0D488546FFF7B6FF2E
:1010D0000C480D490D4A002302E0D458C450043393
:1010E000C4188C42F9D30A4A0A4C002301E0136069
:1010F0000432A242FBD300F057F800F00EF8FEE7EE
:10110000001000200000002008000020AC1400089F
:10111000080000201C090020FEE710B5FFF78AFF39
:10112000FFF72EF8FFF73CF8FEE7000037B5FA248A
:1011300000230121E4001A00180001910094FFF738
:10114000C1FD002802D02100FFF7A4FE01256D4259
:101150002800FFF74BFD041EFAD08068012804D157
:101160000B230221034AFFF781FC2000FFF756F909
:10117000EEE7C0465014000837B501256D4228003F
:10118000FFF734FD041EFAD08368022B08D1037CDC
:10119000012B05D16B46D91D00230B70FFF7E2F937
:1011A0002000FFF73BF9EAE770B50C4D0C4E761BBB
:1011B000B61005D0002408CD01349847A642FAD1D4
:1011C00000F04CF9074D084E761BB61005D00024F0
:1011D00008CD01349847A642FAD170BD74140008B6
:1011E000741400087414000878140008F0B5C6469A
:1011F00000B50F2A41D903270D003E0005430C001E
:1012000003002E402F423DD11500103D2D09A84668
:101210002D01AC46844427681D001F6067685F602D
:10122000A7689F60E7681034DF6010336545F2D12E
:1012300045460F230C2401352D014919134045194A
:10124000144222D08C59AC5104369C1B032CF9D883
:10125000043B9B0801339B00ED18C91803231A4077
:10126000561E002A06D00023CC5C1A00EC54013331
:101270009642F9D180BCB846F0BD0500561E002A42
:10128000F1D1F7E70500561EEDE71A00F6E7C04674
:10129000F0B50500830749D0541E002A45D003004D
:1012A0000326CAB202E00135013C3ED301332A7065
:1012B0003342F8D1032C30D9FF220A4015021543DE
:1012C0002A0415430F2C34D92700103F3F093E0153
:1012D000B4461E001A0010366644156055609560CD
:1012E000D5601032B242F8D101373F01DB190F2728
:1012F0000C22274022403C00002A0ED03E1FB60898
:10130000B400A4461A001C1D644420C2A242FCD1B1
:1013100003240136B6009B193C40002C05D0C9B20D
:101320001C19197001339C42FBD1F0BD030014005D
:10133000C0E72700E2E7C046002243088B4274D38F
:1013400003098B425FD3030A8B4244D3030B8B42C6
:1013500028D3030C8B420DD3FF22090212BA030CCF
:101360008B4202D31212090265D0030B8B4219D3B0
:1013700000E0090AC30B8B4201D3CB03C01A5241D0
:10138000830B8B4201D38B03C01A5241430B8B4218
:1013900001D34B03C01A5241030B8B4201D30B0301
:1013A000C01A5241C30A8B4201D3CB02C01A524128
:1013B000830A8B4201D38B02C01A5241430A8B42EB
:1013C00001D34B02C01A5241030A8B4201D30B02D4
:1013D000C01A5241CDD2C3098B4201D3CB01C01AEE
:1013E000524183098B4201D38B01C01A52414309F8
:1013F0008B4201D34B01C01A524103098B4201D3E6
:101400000B01C01A5241C3088B4201D3CB00C01A52
:10141000524183088B4201D38B00C01A52414308CA
:101420008B4201D34B00C01A5241411A00D20146EF
:10143000524110467047FFE701B5002000F006F862
:1014400002BDC0460029F7D076E770477047C04616
:1014500048692C20414B4F5321210000F8B5C0466C
:10146000F8BC08BC9E467047F8B5C046F8BC08BC3E
:041470009E467047DD
:041474003501000836
:04147800090100085E
:10147C0001000000791100080000000002000000CB
:10148C000400000040000000000000002D110008C6
:10149C0000000000010000000400000040000000FB
:0814AC00FFFFFFFFFFFFFFFF40
:04000005080010C916
:00000001FF
