:020000040800F2
:1000000000100020D1110008211200082112000860
:1000100000000000000000000000000000000000E0
:10002000000000000000000000000000750F000844
:100030000000000000000000A50F0008F90F0008F4
:1000400021120008000000002112000821120008FF
:1000500021120008211200082112000821120008B4
:1000600000000000211200082112000821120008DF
:1000700021120008211200082112000800000000CF
:1000800021120008000000000000000021120008FA
:1000900000000000211200082112000821120008AF
:1000A00000000000211200080000000021120008DA
:1000B0000000000000000000000000000000000040
:1000C0000448054B10B5834203D0044B002B00D0ED
:1000D000984710BD70000020700000200000000054
:1000E00006480749091A8B10C90FC91810B54910DD
:1000F00003D0044B002B00D0984710BD70000020A7
:10010000700000200000000010B5074C2378002B81
:1001100009D1FFF7D5FF054B002B02D0044800E0C2
:1001200000BF0123237010BD7000002000000000FC
:1001300008260008054B10B5002B03D004490548DC
:1001400000E000BFFFF7CCFF10BDC046000000007C
:10015000740000200826000872B6024A1388013392
:10016000138070478C000020044A1388013B9BB227
:100170001380002B00D162B67047C0468C0000206F
:1001800010B5064800F0ACFE00F0FEF900F01CF9D6
:1001900000F0FCFD00F05EFB10BDC046006CDC0210
:1001A00010B500F03FFCFF23034A1B0411680B430A
:1001B000136000F0B3FE10BD20ED00E001235B42B0
:1001C000C360031D436083600023038370470023E3
:1001D00003617047038B10B5021D002B08D10A6024
:1001E0004A6041608160016001330861038310BD92
:1001F000846821604C600A608160F5E7038B70B50C
:10020000002B02D1FFF7E6FF70BD8D68041D6A1C4C
:1002100009D18268146801330C6061604A60116022
:1002200008610383F0E722002468A668AE42FAD989
:10023000F0E70369016842684A6011601968814209
:1002400000D11A6000220261188B013880B2188335
:100250007047020003681B6808C2934201D11B6803
:1002600003600368D8687047F0B5274D030029681C
:1002700000290CD1254A2648264C11711460916042
:100280002A608260244A01600131017114600322F6
:1002900003339343181E29D01F4F00203968994219
:1002A00024D31B4A28689268904220D10479002008
:1002B000012C1BD0146800209C4217D31000E61AB2
:1002C0000C30142E1BD91C000C3414190C3E266063
:1002D000002626719668A660002E00D12C600125AC
:1002E0000C391360CB1A157194603B60F0BD146833
:1002F0009C4202D31479012CDCD19268D4E701230B
:10030000091B13713960F1E794000020A40000205C
:10031000980000205408000090000020F7B5274CFA
:100320002168002915D0002813D00B680C33CB1896
:1003300098420ED2224DAB680C33984209D32A0062
:100340002B000C38994208D0834203D11979002937
:1003500006D1F7BD1A009B68F4E78342F9D1F5E7AF
:1003600018481968066801918F1900261E719E6849
:100370000760002E0ED0317900290BD10C3701997E
:10038000076037680C31C9191960B1689960002994
:1003900000D1236011790029DBD1AA42D9D021688C
:1003A000994200D1226001680C310160186811681F
:1003B0009B6809180C3111609360CAE79400002013
:1003C000980000209000002070B5FFF7C5FE104A8D
:1003D000104B11001A609B239B00D058002301266C
:1003E0001C000D0014351F2B0FD00D6001332900A8
:1003F000202BF6D1002C02D09B239B00D050002252
:10040000054B1A70FFF7B0FE70BD34000020EDE719
:100410000809002004090020880B002010B5040002
:10042000FFF79AFE084B1A681C60237C2260012BA0
:1004300002D1E068FFF772FF044A1378013B1370A2
:10044000FFF792FE10BDC04604090020880B002073
:10045000002303604360017243727047F7B50500E3
:100460001E0001920091FFF777FE6A7A2B7A9A427A
:1004700002D3FFF779FEF7BD194B1B781F2BF8D875
:10048000184F01333C683000226826713A60144AE4
:10049000137001232374009BA360FFF7E5FEE06067
:1004A000002808D13B680E4A23600D4B3C601B7846
:1004B000013B1370DDE73200019901F00BF86B7A14
:1004C000002B05D101222C606C606A722360D0E79A
:1004D0006A680133146000226C6022606B72C8E7A6
:1004E000880B002004090020F8B504000D00FFF778
:1004F00033FE627A237A934202D8FFF735FEF8BDC5
:100500000E4801781F29F8D80D4E0131336801706B
:100510001F683760002A08D101212360636061727F
:100520001A6000229D601A74E7E7616801320B606F
:100530000021636019606272F3E7C046880B0020F7
:1005400004090020427A0300101E08D018680168D0
:100550001960012A04D100221A605A605A72704749
:10056000013AFBE703790B70C0687047072101234C
:1005700081438B4010B5C208024CD2B2A15C0B4340
:10058000A35410BD890B0020002210B5034B092095
:100590001A705A70FFF7EAFF10BDC046890B0020A1
:1005A000072201218243914010B5C308024CDBB2FF
:1005B000E25C8A43E25410BD890B0020002030B574
:1005C000094B1A78002A08D00023072101241500BE
:1005D000CB1A1D41254203D030BD08300133F0E76E
:1005E000013003000B40F2E7890B0020FEE710B555
:1005F00000F00CFCFCE70000F8B507001C263037C3
:10060000011D04003878084D70434019FFF7E2FDE2
:1006100038784643AD192B8B012B01D1FFF7A6FF8C
:1006200001234C342370F8BDD00B0020F8B5244BC7
:10063000244D04001E6828680F000430FFF7F9FD00
:10064000002804D12B6830331878FFF7A9FF631C0A
:100650001AD1002F18D029681B480431FFF7BAFDC2
:1006600003222B684C331A70FFF7A8FFC3B21C207B
:1006700043431648C0184368DA68154B1A600022D5
:100680001B684C331A70F8BD2B683419DC60A64225
:1006900009D9104B186829680431FFF7AFFD2B68A2
:1006A00002224C33DFE70C4B186829680431FFF74E
:1006B000A5FD0A4B1A68A242F1D91C60EFE7C046BB
:1006C0001C0D0020140D0020EC0C0020D00B00208D
:1006D000180D0020CC0B0020C40B002000000020CF
:1006E000F0B585B00093484B05001B68029103925A
:1006F000002B7AD0454A1278824276D982009F58E0
:100700000192002F71D10B9B9800FFF7ADFD041EE5
:100710006BD05020FFF7A8FD061E00D170E05022DC
:10072000390000F029FF029A2000039B0B99F46224
:1007300000F006FC0B9B3060736333003C331D708C
:1007400035003000009B30352B700A9B4030D9B209
:10075000341DFFF77DFE2000FFF739FD3000183013
:10076000FFF735FD009B3661F3607662FFF7F4FC1E
:10077000274A138801339BB213801388012B36D18B
:100780001C207843234B01371818FFF717FD0A2F59
:10079000F6D1214F3800FFF711FD2048FFF70EFD7D
:1007A0001F48FFF70BFD1F4B1C4A1F601E4B1A60B2
:1007B0001E4B1E601C272878164B78432100181802
:1007C000FFF708FD2878134B4743DC19238B012BD7
:1007D00001D1FFF7CBFE330001224C331A70FFF733
:1007E000C3FC094B019A1B689E5005B0F0BD0F4A2F
:1007F0001368303319782B789942DBD81660D9E723
:100800002000FFF78BFDF0E70C0D0020100D0020FD
:10081000C80B0020D00B00208C0B0020A80B002060
:10082000EC0C0020C40B0020CC0B0020140D002089
:10083000014B18687047C0461C0D0020014B18780A
:100840007047C046080D0020014B18787047C0461D
:10085000110D0020F7B5304C002C42D02F48002855
:1008600008D084423DD02E4B001B984238D8C3108C
:100870002C4858432C4B2D4EC0B218702C4F431CA3
:10088000307002302B4DC0B2387080002B70FFF7F3
:10089000EBFC294B1860002822D03A780021920006
:1008A00000F06AFE1D4B9C421DD3244C287823780F
:1008B000012B08D0642301935C3B00930023204963
:1008C0001A00FFF70DFF184B18782378012B07D07B
:1008D0001123002201931B490092083BFFF700FF00
:1008E000F7BD0020C6E720783378834212D9134A37
:1008F000237B1278012A0DD0092B0BD861680029BF
:1009000008D06269102A05D9019222690092A26872
:10091000FFF7E6FE1834C5E7D825000808260008CA
:10092000B8170000ABAAAAAA090D0020080D0020E4
:10093000100D0020110D00200C0D0020E80C0020EF
:10094000EF050008ED050008F8B52F4B2F4E1D6888
:1009500001351D60002D0CD12D4B2E4A19681068F1
:10096000186011601A68128B002A23D101235B42A0
:10097000336033680027AB4207D8254B1A68128BC7
:10098000002A1CD101235B423360FFF717FEC3B27C
:100990001C2043432048C018038B012B2FD9FFF79D
:1009A00058FC1E4B186000221C4B01271B684C335F
:1009B0001A7026E01B685B68DB68DB68D8E71B6899
:1009C0005B68DC68E3689D42DED3201DFFF731FCE5
:1009D000A36A002B03D020001830FFF72AFC200068
:1009E000FFF70AFE22000E4B30321B6812783033BC
:1009F0001B789A42C1D2094B01271C60BDE7012F29
:100A0000D1D03800F8BDC0461C0D002000000020E9
:100A1000C40B0020CC0B0020D00B0020180D0020B0
:100A2000140D002010B5FFF7C9FD1C2343430948EE
:100A3000C0184368DA68084B1A601A68074B1A60D6
:100A40000022074B1A60074B013A1A60064B02322C
:100A50001A7010BDD00B0020180D0020140D0020BE
:100A60001C0D002000000020E80C0020F7B51F003E
:100A7000040000910192FFF76FFB294D2B68002BBA
:100A800007D0284A1278A24203D9A4001859002896
:100A900002D1FFF769FBF7BD234E33689842F8D0C7
:100AA00003004C331B784030042B07D0052B29D092
:100AB0003B00019A0099FFF7D1FCEAE73B00019A5D
:100AC0000099FFF7CBFC2B681859836A1830002B6C
:100AD00023D12B681859FFF78FFD2B681A593368FB
:100AE00011003033303109781B789942D1D20F4B45
:100AF0001A6000221B684C331A7080220C4B52057E
:100B00001A60C6E73B00019A0099FFF7A7FC2B6823
:100B100018594369002BDCD00430FFF78AFBD8E773
:100B20000C0D0020100D0020140D0020180D0020C9
:100B300004ED00E070B504000E00FFF70DFB264D3C
:100B40002B68002B07D0254A1278A24203D9A400B3
:100B50001859002802D1FFF707FB70BD03004C3382
:100B60001B784030042B05D0052B28D03100FFF72F
:100B7000BBFCF0E73100FFF7B7FC2B681859836A1C
:100B8000002B02D01830FFF754FB2B681859FFF7E1
:100B900033FD2B681A59124B11001B68303130336A
:100BA00009781B789942D6D20E4B1A6000221B6836
:100BB0004C331A7080220C4B52051A60CBE731007F
:100BC000FFF792FC2B6818594369002BD5D00430ED
:100BD000FFF72FFBD1E7C0460C0D0020100D0020C1
:100BE000140D0020180D002004ED00E0F8B50500FC
:100BF000FFF7B2FA194E1A4F33683A683C331B7844
:100C00009B0098584030FFF79DFC0400002D21D038
:100C100000281FD101212800FFF708FD6B1C15D10A
:100C2000042233684C331A7080220E4B52051A602E
:100C3000FFF79AFA33683A683C331B789B00985860
:100C40004030FFF77FFC04002000F8BD3368052228
:100C50004C33E8E7FFF788FAF6E7C046140D0020AA
:100C60000C0D002004ED00E010B50400FFF774FA4D
:100C7000FFF7DEFD210023690831984206D9044BB5
:100C80001868FFF7BBFAFFF76FFA10BD014BF7E7E3
:100C9000280D0020640D0020084A1368198B084BAA
:100CA000002903D1012252421A6006E01268196835
:100CB0005268D26812698A42F6D37047640D0020E8
:100CC00004000020F0B585B01D000AAB80CB019078
:100CD0001E7802910392FFF7B1FDA84203D80024C9
:100CE000200005B0F0BDFFF7AFFDA842F7D0002F00
:100CF00001D1012EF3D0FFF72FFA134A1378072BF7
:100D000003D812490C68002C02D1FFF72DFAE6E750
:100D10002068013313700860FFF726FA019B2371E6
:100D2000029BE361039B6362631CDD77002E07D0A7
:100D3000012E07D020000830FFF749FA6461CFE7A1
:100D4000A662F7E7A762F5E7C80E0020200D002095
:100D500010B50400FFF700FA0A4A1378002B02D1FD
:100D6000FFF702FA10BD0849013B08681370A36938
:100D700020600C60002BF3D020000830FFF759FAF8
:100D8000EEE7C046C80E0020200D0020174B184A81
:100D900070B513601A00FC32906B00221900140029
:100DA00001260D002C35072A1CD00D6001322900C8
:100DB000082AF6D1002C01D0FC33986300220D4D97
:100DC0000D4B28001A70FFF7F9F90C4C2000FFF7C3
:100DD000F5F901220A4B52421D600A4B1C600A4B76
:100DE0001A6070BD34000020E0E7C046680D0020A6
:100DF000200D00202C0D0020C80E0020480D0020E2
:100E0000640D0020280D002004000020F8B5FFF735
:100E10000FFD264F05003B68254E83420BD9254B1D
:100E2000254A19681068186011601B681B8B002B1D
:100E300016D1013B33603368AB4207D81D4B1A68AB
:100E4000128B002A0ED101235B42336030683D6073
:100E5000401BFFF7CBFE002801D0FFF7DFFAF8BDFB
:100E60000023E7E71B685B68DC6823699D42ECD3DD
:100E700020000830FFF7DDF9636A002B0BD098479C
:100E8000A36A002B0DD05B1920002361FFF7ECFE55
:100E9000FFF702FFD2E7631CD87FE169FFF74AFE44
:100EA000EEE72000FFF754FFF2E7C046240D0020D4
:100EB00004000020640D0020280D002070B50D00F6
:100EC0000400FFF7B5FC401920612000FFF7CCFEBD
:100ED000FFF7E2FEFFF7B8FC0021FFF72BFE70BD25
:100EE00007B5FA21890001F0A7F90190019A094B91
:100EF000013A5A6000229A6007321A60064A136863
:100F00001B021B0A1360802311681B060B4313602E
:100F100007BDC04610E000E020ED00E00648006894
:100F2000006880F3088862B661B6BFF34F8FBFF3E5
:100F30006F8F00DFC046000008ED00E07047C0463C
:100F400010B50B4C091989004018072180248843EB
:100F5000011F64040C6001240439A2430A600200EA
:100F60000E210C3A1160143A4038136010BDC0468F
:100F7000FFFFFF3F72B60949096808681030F0C8E2
:100F800080F30988A046A946B246BB462038F0C87F
:100F900070460D210843864662B67047140D002046
:100FA0007047C046EFF3098000280AD02038F0C00F
:100FB000A046A946B246BB46F0C020380B49096896
:100FC00008600A480A490A68026010681030F0C8D0
:100FD00080F30988A046A946B246BB462038F0C82F
:100FE00070460D210843864670470000140D00200E
:100FF000180D00207047C04610B572B6FFF7A4FC6C
:10100000012803D18022024B52051A6062B610BD3E
:1010100004ED00E00122174B10B519680A431A606D
:10102000022219681142FCD01121134A11605A683A
:1010300012490A405A60A022596892030A435A6032
:101040008022196852040A431A60802292041968A7
:101050001142FCD003215A688A43110002220A433C
:101060000C215A605A680A40082AFBD100F07EF829
:1010700010BDC04600100240002002400CF8C2FF24
:1010800080230A4A9B0251690B4353619023DB057D
:101090001A6807490A401A608022196852000A43F8
:1010A0001A60802252039A617047C04600100240C5
:1010B000FFFCFFFF8022154B920259690A435A61D7
:1010C00080229969D2010A439A619023DB051A684C
:1010D0000F490A401A60A022196892030A431A6055
:1010E0005A6A0C490A405A628822596A52000A43D5
:1010F0005A620022084B1A605A609A60A222FF329C
:10110000DA60953AFF3A1A607047C0460010024014
:10111000FFFFC3FF0FF0FFFF0038014010B5FFF7DE
:1011200079FFFFF7ADFFFFF7C5FF10BD024BD86990
:101130000006C00F7047C0460038014010B50400DB
:10114000FFF7F4FF0028FBD0014BA4B21C8510BDB3
:101150000038014010B5041E03D110BD0134FFF763
:10116000EDFF20780028F9D1F7E770470C2270B521
:10117000124E134D73681340082B0AD0114B2B608D
:101180007368114A1B061B0FD35C2A68DA402A6079
:1011900070BD0F2374687268A40C1C40F16A02349D
:1011A000D20307D519400748013101F045F84443FF
:1011B0002C60E5E7054B5C43FAE7C04600100240AF
:1011C0000800002000127A005023000800093D00AA
:1011D0000D488546FFF7C9FF0C480D490D4A00230D
:1011E00002E0D458C4500433C4188C42F9D30A4ADC
:1011F0000A4C002301E013600432A242FBD300F04A
:1012000023F900F021F8FEE7001000200000002084
:10121000700000200826000870000020DC0E00206E
:10122000FEE70FB400B5A3B024AB04CB802102A825
:10123000019300F0F5F97F2802D802A8FFF78AFF92
:1012400023B008BC04B0184713B5FFF767FF174C6D
:101250002000FFF7E6FF1648FFF7E3FF1548FFF70A
:10126000E0FF1548FFF7DDFF1448FFF7DAFF1448E9
:10127000FFF7D7FF2000FFF7D4FF124C12482100E0
:10128000FFF7CFFFFEF77CFF002301220093210030
:101290000E48FFF7C6FF21000D48FFF7C2FF2100EF
:1012A0000C48FFF7BEFFFEF77BFFFEE75424000863
:1012B000602300087E2300089C230008BA2300084E
:1012C000D8230008F6230008FB2300080B2400089D
:1012D000262400083E240008F0B5FA24002301214A
:1012E00089B0E4001A00180001910094FFF7EAFCAD
:1012F000002802D02100FFF7E1FD01246442200014
:10130000FFF774FC051EFAD08668012E30D1FFF776
:101310008FFAFA218900040000F08EFF3C2101F0D1
:1013200011F820000591144900F086FF3C2101F0DE
:1013300009F820000691114900F07EFF182101F004
:1013400001F80791FA210E4B0E4F200089000193FE
:10135000029700F0F7FF059B069A0B48009107994A
:10136000FFF75FFF0B233A0002213000FFF77EFBFF
:101370002800FFF753F8C0E760EA000080EE36006F
:101380009E2400089324000857240008F0B589B073
:1013900001256D422800FFF729FC041EFAD083685E
:1013A000022B42D1037C012B3FD1002302AAD3752B
:1013B00017339B181900FFF7D5F8061E35D002AB7E
:1013C000DA7D0B2A31D1837A002B2ED1194900F016
:1013D0005DF8002829D1FFF72BFAFA2189000500D2
:1013E00000F02AFF3C2100F0ADFF280004911249D3
:1013F00000F022FF3C2100F0A5FF280005910F49D5
:1014000000F01AFF182100F09DFF0F00FA210C4B8D
:10141000280089000193029600F094FF049B00913C
:10142000059A39000748FFF7FCFE2000FEF7F6FF9B
:10143000AEE7C0469324000860EA000080EE360064
:10144000EB240008AA24000870B50C4D0C4E761B46
:10145000B61005D0002408CD01349847A642FAD131
:1014600001F0AAF8074D084E761BB61005D00024EF
:1014700008CD01349847A642FAD170BDD0250008A6
:10148000D0250008D0250008D425000830B5032A4F
:101490000CD903000B439B0719D103680C68A342C6
:1014A00015D1043A04300431032AF6D8551E002A17
:1014B0000BD0002303E05A1C9D4206D01300C25CEF
:1014C000CC5CA242F7D0101B00E0002030BD551EBE
:1014D000EFE7C046F0B5C64600B50F2A41D903274D
:1014E0000D003E0005430C0003002E402F423DD16D
:1014F0001500103D2D09A8462D01AC4684442768EF
:101500001D001F6067685F60A7689F60E768103410
:10151000DF6010336545F2D145460F230C240135B9
:101520002D01491913404519144222D08C59AC5150
:1015300004369C1B032CF9D8043B9B0801339B0009
:10154000ED18C91803231A40561E002A06D000239E
:10155000CC5C1A00EC5401339642F9D180BCB846F9
:10156000F0BD0500561E002AF1D1F7E70500561E12
:10157000EDE71A00F6E7C046F0B50500830749D04D
:10158000541E002A45D003000326CAB202E00135EA
:10159000013C3ED301332A703342F8D1032C30D9B9
:1015A000FF220A40150215432A0415430F2C34D993
:1015B0002700103F3F093E01B4461E001A001036B6
:1015C0006644156055609560D5601032B242F8D11E
:1015D00001373F01DB190F270C22274022403C0036
:1015E000002A0ED03E1FB608B400A4461A001C1DE7
:1015F000644420C2A242FCD103240136B6009B19E8
:101600003C40002C05D0C9B21C19197001339C4212
:10161000FBD1F0BD03001400C0E72700E2E7C0469D
:1016200070B5194C9AB02468002928DB82256E46D3
:10163000AD00B58100900490002911D001390291CC
:10164000059101214942F1812000694600F04CF9E1
:10165000431C01DA8B2323600023009A13700CE0F3
:101660000291059101214942F1812000694600F073
:101670003BF9431C01DA8B2323601AB070BD8B2326
:10168000012023604042F8E70C00002030B5140030
:1016900005001A009BB0002C2ADB822368469B00C1
:1016A000838100910491002C12D001235B42013C04
:1016B000C38169461E9B28000294059400F014F92A
:1016C000431C01DA8B232B600023009A13700DE07A
:1016D00001235B42C38169461E9B28000294059446
:1016E00000F002F9431C01DA8B232B601BB030BDE4
:1016F0008B23036001204042F8E7C046F0B5D64690
:101700004F464646C0B58F6882460C0016001D0045
:101710009F423BD890228B89D200134212D13D00C8
:1017200008682A00310000F019FCA3680020DF1BC4
:101730002368A7609C4665442560E0BCBA46B14674
:10174000A846F0BD096922686069521A91464200B4
:101750001218D00F8218681C5210484490469042CC
:1017600001D9804602005B0513D51100504600F0F8
:10177000ABFC071E21D04A462169FFF7ABFEA389C7
:10178000134A134080221343A38107E01F00086817
:10179000C7E7504600F0FAFC071E0AD0380043465F
:1017A0004A46484463619B1A276120602F00A3606A
:1017B000B7E75046216900F027FC0C23524613601E
:1017C00040220120A38940421343A381B5E7C046CC
:1017D0007FFBFFFFF0B54E464546DE465746E0B577
:1017E000936883B00D0091460190002B6AD0176872
:1017F00008688C6843E09022AB89D20013422ED057
:101800002969421A9346686942001218D00F82185B
:10181000701C521058449046904201D980460200F4
:101820008020C000034236D01100019800F04CFC2B
:10183000041E52D05A462969FFF74CFEAB89294A4B
:10184000134080221343AB81434620005A462C614B
:10185000B046340058446B619B1A2860AB60424626
:10186000514600F07BFBAB6828681C1B4B469B680D
:1018700040449E1B4B46AC6028609E6022D03B6873
:101880007E689A460837002EF9D0A046B442B2D9F5
:101890003400B046E3E7019800F078FC041ED3D191
:1018A000019C2969200000F0AFFB0C23236040223B
:1018B000AB8901201343AB814A4600234042936029
:1018C000536003E000234A460020536003B0F0BC9D
:1018D000BB46B246A946A046F0BD0C23019A136050
:1018E000E5E7C0467FFBFFFFF0B5DE4657464546BD
:1018F0004E46E0B51C008B8982468B4690469DB0D3
:101900001B0603D50B69002B00D1EDE0002304ADCD
:101910006B6120336B761033AB7643461B787C4E7D
:101920000394002B74D0444604E063780134002B08
:1019300000D17AE0252BF8D14346E71A444500D080
:1019400077E02378002B63D00122002352426A60A3
:101950004432671C2B60EB60AB60AB54AB6506E0B8
:101960000123801B83402A68013713432B60052223
:101970003000397800F0B8FA0028F1D12B68DA0687
:1019800002D543222021A9541A0702D543222B2134
:10199000A95439782A2958D1039A111D1268039144
:1019A000002A00DA7CE0EA6079787C1C2E295FD07E
:1019B000584B03221800984600F096FA002807D0EA
:1019C0004346C01A402383402A68013413432B60E6
:1019D0002178631C062250489846297600F084FA44
:1019E000002863D04D4B002B53D003AB00935A46D5
:1019F000290050464A4B00E000BF81464B46013368
:101A000006D06B694B446B6143461B78002B8AD12F
:101A10005B469B895B0600D572E068691DB0F0BC2F
:101A2000BB46B246A946A046F0BD4346E71A444528
:101A3000EED03B00424659465046FFF75FFE431C3E
:101A4000E6D06B69DB196B617BE708003038092849
:101A50000BD8EB689A00D31879785B001B18080044
:101A6000303801370928F5D9EB603C002E299FD189
:101A700061782A2924D1039BA01C1A1D1B6803929C
:101A80006B60002B02DA01235B426B60A1780400DB
:101A90008EE70722039B0733934308330393B0E792
:101AA0005242EA60022213432B607DE703AB0093AE
:101AB0005A46290050461A4B00F0D2F881469DE75D
:101AC00008000023303801346B60092800D96FE723
:101AD0009A00D31861785B001B1808003038013475
:101AE0000928F5D96B6063E7402100F0EDFA5B4609
:101AF00018601861002806D040235A46536105E754
:101B0000012040428AE70C2352460138136085E7E2
:101B1000F824000800250008042500080000000043
:101B2000FD160008F8B557464E46DE464546E0B578
:101B30001F000A9B924699460A698B6806000C00B2
:101B40009A4200DA1A0053461A604323E35C002BE2
:101B500002D0514601320A6021688A065ED553469A
:101B6000524606201B680233136021680A000842AF
:101B700009D1E268D31A192293460022A344904661
:101B80000A00002B42DC4323E35C591E8B41920682
:101B90000AD53020E1184331087045215A1C615C98
:101BA000A218433202331170220039003000433250
:101BB000C847431C19D0062322681340042B33D096
:101BC000A368226993423DDD002188469B1A984410
:101BD00000251A3402E00135454533DA012322009D
:101BE00039003000C847431CF5D101204042F0BC09
:101BF000BB46B246A946A046F8BD01239C465346C3
:101C0000E2681B68E044D51A454520DD01235A46A9
:101C100039003000C847431CEFD1E6E706220A42EC
:101C200012D05A1E9341BFE753461968E3682269F0
:101C3000591ACB43DB170B409846A3689342C5DC87
:101C40000029C5DC0020D2E753461B6891E74323F7
:101C50002268E35C591E8B4192069AD4A4E7C046E1
:101C6000F0B54E46994643239C4657464546DE46C8
:101C70008C446346E0B587B003930C00097E904620
:101C80000700109A002914D00B00583BDBB2202B20
:101C90004BD892489B00C3589F462368190602D42C
:101CA0005B0600D501E11368191D11601B686269AC
:101CB0001A600023039D23614B46210000933800E6
:101CC000434605AAFFF72EFF431C1FD023692A00B5
:101CD00041463800C847431C18D023689B071ED5CF
:101CE000E36805981A1A002A1BDD2600002519361C
:101CF00005E0E368059801351A1AAA4211DD0123AF
:101D0000320041463800C847431CF2D1012040420E
:101D100007B0F0BCBB46B246A946A046F0BDE3689A
:101D200005989842F4DA1800F2E742232500E154BE
:101D3000413B4235236143230022E254BCE7236840
:101D4000190602D4590600D5BBE01168081D1060C1
:101D50000A681600002A75DB614B9B460A239A46E7
:101D60004DE02368180602D45B0600D5A4E0136892
:101D7000181D10601E685A4B9B466F2900D1A7E0C2
:101D80000A239A4638E013682500191D11601A6865
:101D90004223E254413B42352361CCE71368191DCD
:101DA00011601D6800212800626800F09DF800287D
:101DB00000D190E0401B60602061BCE720232168D7
:101DC0000B43236045217820605446498B46190611
:101DD00031D459062FD51168081D0E881060DA0716
:101DE00002D520221343236010239A46002E03D1EC
:101DF000226810339A43226043230022E25463682E
:101E0000A360002B48DB0422216891432160002E4F
:101E100027D1002B42D1039D5346082B31D0039B81
:101E20005B1B236148E745235821E15423682C4973
:101E30008B461906CDD51168081D10600E68CEE7D7
:101E40002368BFE743222D21A15462687642A26035
:101E5000002A02DB042293432360214B9B460A2382
:101E60009A46039D3000514600F06CFA5B465B5C7D
:101E7000013D2B70330006005345F3D25346082B27
:101E8000CDD12368DB07CAD5636822699342C6DCDB
:101E90003023013D2B70C2E7002EE2D15B462500C6
:101EA0001A7842234235E254B6E713686169181D77
:101EB00010601B681980FCE61368181D1E881060EE
:101EC00059E71168081D106000228E5E320041E75C
:101ED00008239A4690E7606820612CE734250008C3
:101EE0000C2500082025000870B5CCB283070DD062
:101EF000531E002A0FD0032504E00130284206D0EB
:101F0000013B08D30278A242F7D170BD1300032B26
:101F10000CD8002B01D10020F7E7C31802E00130F4
:101F20008342F8D00278A242F9D1EEE7FF2529409A
:101F30000D0229430D04074E0D43026806496A400D
:101F4000511891433142E8D1043B0430032BF4D8BB
:101F5000DFE7C04680808080FFFEFEFEF0B588424D
:101F60000AD98B18984207D2531E002A03D0CA5CA4
:101F7000C254013BFBD2F0BD0F2A0BD80500561E00
:101F8000002AF8D00023CC5C1A00EC5401339642AE
:101F9000F9D1F0E703270D003E0005430C000300D4
:101FA0002E402F422BD11500103D2D09AC462F019C
:101FB0003F1825681D6065685D60A5689D60E568DF
:101FC0001034DD601D001033BD42F2D165460F2391
:101FD0000C2401352D01491913404519144211D023
:101FE0008C59AC5104369C1B032CF9D8043B9B083C
:101FF00001339B00ED18C91803231A40BFE7050001
:10200000561EBFE71A00BAE770B50500002915D0C3
:102010000C1F2368002B23DB280000F0F1F8294A6D
:102020001368002B05D0A3420BD9216860188342A6
:102030002DD063602800146000F0E4F870BDA34266
:1020400010D81A005B68002BF9D1106811188C4267
:1020500019D030D363605460280000F0D3F8EDE766
:10206000E418D9E711685018A04217D023D8216886
:1020700060188342EED118685B6884466144216031
:1020800063605460E8E7236818181060E4E7186894
:102090005B688446614421606360CBE7206809186F
:1020A000501811608342D7D118685B688446614438
:1020B00011605360D0E70C2328002B6000F0A2F8D9
:1020C000BCE7C046CC0E0020F8B50323CD1C9D43D1
:1020D000083506000C2D27D20C25A94226D8300041
:1020E00000F08EF8284F3A68002A27D0140004E048
:1020F00063682200002B21D01C0023685B1BF7D4EF
:102100000B2B17D86368944235D05360300000F031
:1021100079F8200007220B30231D9043C21A984201
:1021200007D01B1AA35004E0002DD6DA0C230020A0
:102130003360F8BD2360E4182560E7E77B68002B77
:102140001BD02900300000F049F8431C0CD00323B9
:10215000C41C9C43A04205D0211A300000F03EF878
:10216000431C01D02560D1E70C233000336000F020
:1021700049F80020DDE73B60C8E70021300000F0AF
:102180002DF87860DDE7C046CC0E0020F8B50600DB
:102190000C00150000291BD0002A15D000F034F8DF
:1021A0002700A84201D33800F8BD29003000FFF70E
:1021B0008BFF071EF7D021002A00FFF78BF92100C3
:1021C0003000FFF721FFEEE7FFF71EFF0027EAE7E9
:1021D0001100FFF779FF0700E5E7C046002370B55F
:1021E000064D040008002B6000F018F8431C00D0D6
:1021F00070BD2B68002BFBD02360F9E7D40E0020C4
:102200007047C0467047C0460B1F1B68181F002B45
:1022100000DB70470B58C018FBE7C046044A0300B8
:102220001068002802D0C318136070470148FAE70D
:10223000D80E0020DC0E0020002243088B4274D30D
:1022400003098B425FD3030A8B4244D3030B8B42B7
:1022500028D3030C8B420DD3FF22090212BA030CC0
:102260008B4202D31212090265D0030B8B4219D3A1
:1022700000E0090AC30B8B4201D3CB03C01A5241C1
:10228000830B8B4201D38B03C01A5241430B8B4209
:1022900001D34B03C01A5241030B8B4201D30B03F2
:1022A000C01A5241C30A8B4201D3CB02C01A524119
:1022B000830A8B4201D38B02C01A5241430A8B42DC
:1022C00001D34B02C01A5241030A8B4201D30B02C5
:1022D000C01A5241CDD2C3098B4201D3CB01C01ADF
:1022E000524183098B4201D38B01C01A52414309E9
:1022F0008B4201D34B01C01A524103098B4201D3D7
:102300000B01C01A5241C3088B4201D3CB00C01A43
:10231000524183088B4201D38B00C01A52414308BB
:102320008B4201D34B00C01A5241411A00D20146E0
:10233000524110467047FFE701B5002000F006F853
:1023400002BDC0460029F7D076E770477047C04607
:102350000000000000000000010203040607080955
:10236000202020205F202020205F20205F5F202071
:102370005F5F5F20205F5F5F5F20200D0A002020ED
:10238000202F205C20207C207C2F202F202F205FDE
:10239000205C2F205F5F5F7C200D0A0020202F2013
:1023A0005F205C207C2027202F207C207C207C202C
:1023B0005C5F5F5F205C200D0A00202F205F5F5F65
:1023C000205C7C202E205C207C207C5F7C207C5F3D
:1023D0005F5F29207C0D0A002F5F2F2020205C5F8B
:1023E0005C5F7C5C5F5C205C5F5F5F2F7C5F5F5F3E
:1023F0005F2F200D0A004D41494E005B25735D099A
:10240000496E6974204253500D0A005B25735D09C3
:10241000496E697420414B4F53207625752E2575E2
:102420002E25750D0A005B25735D094578616D7079
:102430006C653A204D4553534147450D0A005B25D5
:10244000735D095374617274207363686564756C9D
:1024500065720D0A0D0A005B2530326C752D253032
:10246000326C752D2530326C75202530336C75201B
:102470006D735D205B25735D0973656E6420222595
:10248000732220746F207461736B20536C617665C6
:102490000D0A0048692C20414B4F53212100544123
:1024A000534B204D4153544552005B2530326C75DF
:1024B0002D2530326C752D2530326C75202530334A
:1024C0006C75206D735D205B25735D0972656376A5
:1024D00020222573222066726F6D207461736B2039
:1024E0004D61737465720D0A0D0A005441534B20FF
:1024F000534C415645000000232D302B2000000096
:10250000686C4C00656667454647000030313233E1
:1025100034353637383941424344454600000000DF
:102520003031323334353637383961626364656649
:1025300000000000261E00082A1D00082A1D0008B1
:102540002A1D00082A1D00082A1D00082A1D00084F
:102550002A1D00082A1D00082A1D00082A1D00083F
:10256000861D00083E1D00082A1D00082A1D0008BF
:102570002A1D00082A1D00083E1D00082A1D00080B
:102580002A1D00082A1D00082A1D00089A1C0008A0
:10259000621D0008BC1D00082A1D00082A1D000835
:1025A0009C1D00082A1D0008621D00082A1D000845
:1025B0002A1D0008401E0008F8B5C046F8BC08BC3B
:1025C0009E467047F8B5C046F8BC08BC9E467047AA
:0425D00035010008C9
:0425D40009010008F1
:1025D800010000008D130008000000000200000048
:1025E800040000008000000000000000D91200086C
:1025F800000000000100000004000000800000004E
:10260800FFFFFFFFFFFFFFFF00127A00100000200E
:1026180000000000000000000000000000000000B2
:1026280000000000000000000000000000000000A2
:102638000000000000000000000000000000000092
:102648000000000000000000000000000000000082
:102658000000000000000000000000000000000072
:102668000000000000000000000000000000000062
:04000005080011D10D
:00000001FF
