:020000040800F2
:10000000001000201B110008191100081911000828
:1000100000000000000000000000000000000000E0
:1000200000000000000000000000000011100008A7
:1000300000000000000000003F1000088F100008C2
:10004000191100080000000019110008191100081A
:1000500019110008191100081911000819110008D8
:1000600000000000191100081911000819110008FA
:1000700019110008191100081911000800000000EA
:10008000191100080000000000000000191100080C
:1000900000000000191100081911000819110008CA
:1000A00000000000191100080000000019110008EC
:1000B0000000000000000000000000000000000040
:1000C0000448054B10B5834203D0044B002B00D0ED
:1000D000984710BD0C0000200C000020000000001C
:1000E00006480749091A8B10C90FC91810B54910DD
:1000F00003D0044B002B00D0984710BD0C0000200B
:100100000C0000200000000010B5074C2378002BE5
:1001100009D1FFF7D5FF054B002B02D0044800E0C2
:1001200000BF0123237010BD0C0000200000000060
:10013000E4140008054B10B5002B03D00449054812
:1001400000E000BFFFF7CCFF10BDC046000000007C
:1001500010000020E414000872B6024A138801332C
:100160001380704728000020044A1388013B9BB28B
:100170001380002B00D162B67047C04628000020D3
:1001800010B5064800F0FCFE00F014FA00F02CF95F
:1001900000F02CFE00F07CFB10BDC046006CDC02C1
:1001A00010B500F06FFCFF23034A1B0411680B43DA
:1001B000136000F003FF10BD20ED00E001235B425F
:1001C000C360031D436083600023038370470023E3
:1001D00003617047038B10B5021D002B08D10A6024
:1001E0004A6041608160016001330861038310BD92
:1001F000846821604C600A608160F5E703001B6938
:1002000000680433984200D10068704703001B69FE
:1002100040680433984200D140687047038B70B542
:10022000002B02D1FFF7D6FF70BD8D68041D6A1C3C
:1002300009D18268146801330C6061604A60116002
:1002400008610383F0E722002468A668AE42FAD969
:10025000F0E70369016842684A60116019688142E9
:1002600000D11A6000220261188B013880B2188315
:100270007047020003681B6808C2934201D11B68E3
:1002800003600368D8687047F0B5274D03002968FC
:1002900000290CD1254A2648264C11711460916022
:1002A0002A608260244A01600131017114600322D6
:1002B00003339343181E29D01F4F002039689942F9
:1002C00024D31B4A28689268904220D104790020E8
:1002D000012C1BD0146800209C4217D31000E61A92
:1002E0000C30142E1BD91C000C3414190C3E266043
:1002F000002626719668A660002E00D12C6001258C
:100300000C391360CB1A157194603B60F0BD146812
:100310009C4202D31479012CDCD19268D4E70123EA
:10032000091B13713960F1E7300000204000002004
:1003300034000020540800002C000020F7B5274CA2
:100340002168002915D0002813D00B680C33CB1876
:1003500098420ED2224DAB680C33984209D32A0042
:100360002B000C38994208D0834203D11979002917
:1003700006D1F7BD1A009B68F4E78342F9D1F5E78F
:1003800018481968066801918F1900261E719E6829
:100390000760002E0ED0317900290BD10C3701995E
:1003A000076037680C31C9191960B1689960002974
:1003B00000D1236011790029DBD1AA42D9D021686C
:1003C000994200D1226001680C31016018681168FF
:1003D0009B6809180C3111609360CAE73000002057
:1003E000340000202C00002070B5FFF7B5FE104A45
:1003F000104B11001A609B239B00D058002301264C
:100400001C000D0014351F2B0FD00D600133290087
:10041000202BF6D1002C02D09B239B00D050002231
:10042000054B1A70FFF7A0FE70BD34000020EDE709
:10043000A4080020A0080020240B002010B5040010
:10044000FFF78AFE084B1A681C60237C2260012B90
:1004500002D1E068FFF772FF044A1378013B137082
:10046000FFF782FE10BDC046A0080020240B00202C
:10047000002303604360017243727047F7B50500C3
:100480001E0001920091FFF767FE6A7A2B7A9A426A
:1004900002D3FFF769FEF7BD194B1B781F2BF8D865
:1004A000184F01333C683000226826713A60144AC4
:1004B000137001232374009BA360FFF7E5FEE06047
:1004C000002808D13B680E4A23600D4B3C601B7826
:1004D000013B1370DDE73200019900F00BFF6B7AEE
:1004E000002B05D101222C606C606A722360D0E77A
:1004F0006A680133146000226C6022606B72C8E786
:10050000240B0020A0080020F8B504000D00FFF720
:1005100023FE627A237A934202D8FFF725FEF8BDC4
:100520000E4801781F29F8D80D4E0131336801704B
:100530001F683760002A08D101212360636061725F
:100540001A6000229D601A74E7E7616801320B604F
:100550000021636019606272F3E7C046240B00203B
:10056000A0080020427A0300101E08D01868016815
:100570001960012A04D100221A605A605A72704729
:10058000013AFBE703790B70C068704710B5FFF7BD
:10059000E9FF10BD806870470721012381438B402C
:1005A00010B5C208024CD2B2A15C0B43A35410BDDB
:1005B000250B0020002210B5034B09201A705A7039
:1005C000FFF7EAFF10BDC046250B002007220121DE
:1005D0008243914010B5C308024CDBB2E25C8A430F
:1005E000E25410BD250B0020002030B5094B1A78CD
:1005F000002A08D00023072101241500CB1A1D4131
:10060000254203D030BD08300133F0E7013003004C
:100610000B40F2E7250B002000207047FEE710B5E5
:1006200000F024FCFCE7F8B507001C263037011D5C
:1006300004003878084D70434019FFF7CBFD387837
:100640004643AD192B8B012B01D1FFF7A5FF0123E9
:100650004C342370F8BDC0466C0B0020F8B5244B19
:10066000244D04001E6828680F000430FFF7F1FDD8
:10067000002804D12B6830331878FFF7A7FF631CDC
:100680001AD1002F18D029681B480431FFF7A2FDAA
:1006900003222B684C331A70FFF7A6FFC3B21C204D
:1006A00043431648C0184368DA68154B1A600022A5
:1006B0001B684C331A70F8BD2B683419DC60A642F5
:1006C00009D9104B186829680431FFF7A7FD2B687A
:1006D00002224C33DFE70C4B186829680431FFF71E
:1006E0009DFD0A4B1A68A242F1D91C60EFE7C04693
:1006F000B80C0020B00C0020880C00206C0B0020EF
:10070000B40C0020680B0020600B002000000020CB
:10071000F0B585B00093484B05001B680291039229
:10072000002B7AD0454A1278824276D982009F58AF
:100730000192002F71D10B9B9800FFF7A5FD041EBD
:100740006BD05020FFF7A0FD061E00D170E05022B4
:10075000390000F021FE029A2000039B0B99F462FD
:1007600000F03DFC0B9B3060736333003C331D7025
:1007700035003000009B30352B700A9B4030D9B2D9
:10078000341DFFF775FE2000FFF721FD3000183003
:10079000FFF71DFD009B3661F3607662FFF7DCFC1E
:1007A000274A138801339BB213801388012B36D15B
:1007B0001C207843234B01371818FFF7FFFC0A2F42
:1007C000F6D1214F3800FFF7F9FC2048FFF7F6FC7F
:1007D0001F48FFF7F3FC1F4B1C4A1F601E4B1A609B
:1007E0001E4B1E601C272878164B784321001818D2
:1007F000FFF7F0FC2878134B4743DC19238B012BC0
:1008000001D1FFF7C9FE330001224C331A70FFF704
:10081000ABFC094B019A1B689E5005B0F0BD0F4A16
:100820001368303319782B789942DBD81660D9E7F2
:100830002000FFF783FDF0E7A80C0020AC0C00209F
:10084000640B00206C0B0020280B0020440B0020C0
:10085000880C0020600B0020680B0020B00C0020EA
:10086000014B18687047C046B80C0020014B18783F
:100870007047C046A40C0020014B18787047C04652
:10088000A50C0020014B18787047C046AD0C002025
:10089000F7B5304C002C42D02F48002808D08442B5
:1008A0003DD02E4B001B984238D8C3102C485843DB
:1008B0002C4B2D4EC0B218702C4F431C30700230A0
:1008C0002B4DC0B2387080002B70FFF7DDFC294B38
:1008D0001860002822D03A780021920000F05CFDD8
:1008E0001D4B9C421DD3244C28782378012B08D023
:1008F000642301935C3B0093002320491A00FFF717
:1009000007FF184B18782378012B07D011230022FA
:1009100001931B490092083BFFF7FAFEF7BD002048
:10092000C6E720783378834212D9134A237B1278A2
:10093000012A0DD0092B0BD86168002908D0626903
:10094000102A05D9019222690092A268FFF7E0FE01
:100950001834C5E7CC140008E4140008B8170000E8
:10096000ABAAAAAAA50C0020A40C0020AC0C002065
:10097000AD0C0020A80C0020840C00201F060008ED
:100980001D060008F8B52F4B2F4E1D6801351D6060
:10099000002D0CD12D4B2E4A19681068186011607B
:1009A0001A68128B002A23D101235B42336033681B
:1009B0000027AB4207D8254B1A68128B002A1CD19E
:1009C00001235B423360FFF70FFEC3B21C20434399
:1009D0002048C018038B012B2FD9FFF74AFC1E4B70
:1009E000186000221C4B01271B684C331A7026E04C
:1009F0001B685B68DB68DB68D8E71B685B68DC68E2
:100A0000E3689D42DED3201DFFF723FCA36A002B81
:100A100003D020001830FFF71CFC2000FFF703FE76
:100A200022000E4B30321B68127830331B789A420A
:100A3000C1D2094B01271C60BDE7012FD1D038007E
:100A4000F8BDC046B80C002000000020600B00205C
:100A5000680B00206C0B0020B40C0020B00C0020B0
:100A600010B5041E0BD0FFF777FB00212000FFF725
:100A7000F5FD8022024B52051A60FFF775FB10BD91
:100A800004ED00E010B5FFF7AFFD1C234343094818
:100A9000C0184368DA68084B1A601A68074B1A6076
:100AA0000022074B1A60074B013A1A60064B0232CC
:100AB0001A7010BD6C0B0020B40C0020B00C00208C
:100AC000B80C002000000020840C0020F7B51F00A7
:100AD000040000910192FFF73FFB294D2B68002B8A
:100AE00007D0284A1278A24203D9A4001859002836
:100AF00002D1FFF739FBF7BD234E33689842F8D097
:100B000003004C331B784030042B07D0052B29D031
:100B10003B00019A0099FFF7B1FCEAE73B00019A1C
:100B20000099FFF7ABFC2B681859836A1830002B2B
:100B300023D12B681859FFF776FD2B681A593368B3
:100B400011003033303109781B789942D1D20F4BE4
:100B50001A6000221B684C331A7080220C4B52051D
:100B60001A60C6E73B00019A0099FFF787FC2B68E3
:100B700018594369002BDCD00430FFF76AFBD8E733
:100B8000A80C0020AC0C0020B00C0020B40C0020FD
:100B900004ED00E070B504000E00FFF7DDFA264D0D
:100BA0002B68002B07D0254A1278A24203D9A40053
:100BB0001859002802D1FFF7D7FA70BD03004C3353
:100BC0001B784030042B05D0052B28D03100FFF7CF
:100BD0009BFCF0E73100FFF797FC2B681859836AFC
:100BE000002B02D01830FFF734FB2B681859FFF7A1
:100BF0001AFD2B681A59124B11001B683031303323
:100C000009781B789942D6D20E4B1A6000221B68D5
:100C10004C331A7080220C4B52051A60CBE731001E
:100C2000FFF772FC2B6818594369002BD5D00430AC
:100C3000FFF70FFBD1E7C046A80C0020AC0C00204A
:100C4000B00C0020B40C002004ED00E0F8B5050065
:100C5000FFF782FA194E1A4F33683A683C331B7813
:100C60009B0098584030FFF77DFC0400002D21D0F8
:100C700000281FD101212800FFF7F0FC6B1C15D1C3
:100C8000042233684C331A7080220E4B52051A60CE
:100C9000FFF76AFA33683A683C331B789B00985830
:100CA0004030FFF75FFC04002000F8BD33680522E8
:100CB0004C33E8E7FFF758FAF6E7C046B00C0020DF
:100CC000A80C002004ED00E010B50400FFF744FA82
:100CD000FFF7C6FD210023690831984206D9044B6D
:100CE0001868FFF79BFAFFF73FFA10BD014BF7E7D3
:100CF000C40C0020000D0020084A1368198B084B13
:100D0000002903D1012252421A6006E012681968D4
:100D10005268D26812698A42F6D37047000D0020EB
:100D200004000020F0B585B01D000AAB80CB019017
:100D30001E7802910392FFF799FDA84203D8002480
:100D4000200005B0F0BDFFF79DFDA842F7D0002FB1
:100D500001D1012EF3D0FFF7FFF9134A1378072BC7
:100D600003D812490C68002C02D1FFF7FDF9E6E721
:100D70002068013313700860FFF7F6F9019B2371B7
:100D8000029BE361039B6362631CDD77002E07D047
:100D9000012E07D020000830FFF719FA6461CFE771
:100DA000A662F7E7A762F5E7640E0020BC0C0020FE
:100DB00010B50400FFF7D0F90A4A1378002B02D1CE
:100DC000FFF7D2F910BD0849013B08681370A36909
:100DD00020600C60002BF3D020000830FFF739FAB8
:100DE000EEE7C046640E0020BC0C0020174B184AEA
:100DF00070B513601A00FC32906B002219001400C9
:100E000001260D002C35072A1CD00D600132290067
:100E1000082AF6D1002C01D0FC33986300220D4D36
:100E20000D4B28001A70FFF7C9F90C4C2000FFF792
:100E3000C5F901220A4B52421D600A4B1C600A4B45
:100E40001A6070BD34000020E0E7C046040D0020A9
:100E5000BC0C0020C80C0020640E0020E40C002014
:100E6000000D0020C40C002004000020F8B5FFF79E
:100E7000F7FC264F05003B68254E83420BD9254BD6
:100E8000254A19681068186011601B681B8B002BBD
:100E900016D1013B33603368AB4207D81D4B1A684B
:100EA000128B002A0ED101235B42336030683D6013
:100EB000401BFFF7CBFE002801D0FFF7BFFAF8BDBB
:100EC0000023E7E71B685B68DC6823699D42ECD37D
:100ED00020000830FFF7BDF9636A002B0BD098475C
:100EE000A36A002B0DD05B1920002361FFF7ECFEF5
:100EF000FFF702FFD2E7631CD87FE169FFF74AFEE4
:100F0000EEE72000FFF754FFF2E7C046C00C0020D8
:100F100004000020000D0020C40C002070B50D005E
:100F20000400FFF79DFC401920612000FFF7CCFE74
:100F3000FFF7E2FEFFF7A6FC0021FFF72BFE70BDD6
:100F4000836970B50400002B15D0FFF789FC0500FC
:100F500020000830FFF77DF9A36A002B0CD05B1945
:100F600020002361FFF7B0FEFFF7C6FEFFF78AFC03
:100F70000021FFF70FFE70BD2000FFF719FFF3E718
:100F800007B5FA21890000F007F90190019A094B91
:100F9000013A5A6000229A6007321A60064A1368C2
:100FA0001B021B0A1360802311681B060B4313608E
:100FB00007BDC04610E000E020ED00E006480068F4
:100FC000006880F3088862B661B6BFF34F8FBFF345
:100FD0006F8F00DFC046000008ED00E0704710B5DD
:100FE0000A4C091989004018072180248843011FF1
:100FF00064040C6001240439A2430A6002000E213B
:101000000C3A1160143A4038136010BDFFFFFF3FE7
:1010100072B60949096808681030F0C880F3098879
:10102000A046A946B246BB462038F0C870460D21FE
:101030000843864662B67047B00C00207047EFF355
:10104000098000280AD02038F0C0A046A946B24640
:10105000BB46F0C020380B490968086009480A49B6
:101060000A68026010681030F0C880F30988A04652
:10107000A946B246BB462038F0C870460D21084349
:1010800086467047B00C0020B40C0020704710B5A5
:1010900072B6FFF777FC012803D18022024B52057C
:1010A0001A6062B610BDC04604ED00E0014B024A72
:1010B0001A6070470800002000127A000C2270B5F8
:1010C000104D6B681340082B19D168680733800CEA
:1010D0006A681840841CD2030FD5E96A0A4819408F
:1010E000013100F059F860436B68084A1B061B0F7A
:1010F000D35CD840064B186070BD0648F3E7024841
:10110000F2E7C0460010024000127A009014000876
:101110000800002000093D00FEE710B5FFF7C6FFFC
:101120000B4A0C4B0C498B420CD300210B4B0C4A45
:1011300093420AD30B4B002B01D000F0B9F800F01A
:101140007FF9FEE701CA01C3EDE702C3F0E7C0463D
:10115000E4140008000000200C0000200C00002017
:10116000680E0020B112000870B5040001252900A6
:101170006368226899405069014204D19161A06876
:10118000FFF76EFCF3E72900103399409161F6E711
:101190007047704770477047002243088B4274D3F2
:1011A00003098B425FD3030A8B4244D3030B8B4268
:1011B00028D3030C8B420DD3FF22090212BA030C71
:1011C0008B4202D31212090265D0030B8B4219D352
:1011D00000E0090AC30B8B4201D3CB03C01A524172
:1011E000830B8B4201D38B03C01A5241430B8B42BA
:1011F00001D34B03C01A5241030B8B4201D30B03A3
:10120000C01A5241C30A8B4201D3CB02C01A5241C9
:10121000830A8B4201D38B02C01A5241430A8B428C
:1012200001D34B02C01A5241030A8B4201D30B0275
:10123000C01A5241CDD2C3098B4201D3CB01C01A8F
:10124000524183098B4201D38B01C01A5241430999
:101250008B4201D34B01C01A524103098B4201D387
:101260000B01C01A5241C3088B4201D3CB00C01AF4
:10127000524183088B4201D38B00C01A524143086C
:101280008B4201D34B00C01A5241411A00D2014691
:10129000524110467047FFE701B5002000F006F804
:1012A00002BDC0460029F7D076E770477047C046B8
:1012B00070B50C4D0C4E761BB61005D0002408CD31
:1012C00001349847A642FAD100F0F0F8074D084ED5
:1012D000761BB61005D0002408CD01349847A642ED
:1012E000FAD170BDC4140008C4140008C414000866
:1012F000C8140008F0B5C64600B50F2A41D9032727
:101300000D003E0005430C0003002E402F423DD14E
:101310001500103D2D09A8462D01AC4684442768D0
:101320001D001F6067685F60A7689F60E7681034F2
:10133000DF6010336545F2D145460F230C2401359B
:101340002D01491913404519144222D08C59AC5132
:1013500004369C1B032CF9D8043B9B0801339B00EB
:10136000ED18C91803231A40561E002A06D0002380
:10137000CC5C1A00EC5401339642F9D180BCB846DB
:10138000F0BD0500561E002AF1D1F7E70500561EF4
:10139000EDE71A00F6E7C046F0B50500830749D02F
:1013A000541E002A45D003000326CAB202E00135CC
:1013B000013C3ED301332A703342F8D1032C30D99B
:1013C000FF220A40150215432A0415430F2C34D975
:1013D0002700103F3F093E01B4461E001A00103698
:1013E0006644156055609560D5601032B242F8D100
:1013F00001373F01DB190F270C22274022403C0018
:10140000002A0ED03E1FB608B400A4461A001C1DC8
:10141000644420C2A242FCD103240136B6009B19C9
:101420003C40002C05D0C9B21C19197001339C42F4
:10143000FBD1F0BD03001400C0E72700E2E7C0467F
:101440008022114B9202596910B50A435A615B69B7
:1014500090238022DB0518680C49520008400243A3
:1014600010201A605A6882435A609A680A409A604B
:10147000DA680A40DA60802252039A61FEF780FE41
:10148000FEF78EFEFEE7C04600100240FFFCFFFFA5
:101490000000000000000000010203040607080924
:1014A000000000480400000064000000F8B5C046D9
:1014B000F8BC08BC9E467047F8B5C046F8BC08BCEE
:0414C0009E4670478D
:0414C40035010008E6
:0414C800090100080E
:1014CC000000000069110008A014000804000000CE
:0814DC000000000014000000F4
:0C14E400FFFFFFFFFFFFFFFF00127A0078
:040000050800111BC3
:00000001FF
