:020000040800F2
:1000000000100020C10100081102000811020008C0
:1000100000000000000000000000000000000000E0
:10002000000000000000000000000000310E000889
:100030000000000000000000610E0008B50E00087E
:10004000110200080000000011020008110200085F
:100050001102000811020008110200081102000834
:10006000000000001102000811020008110200083F
:10007000110200081102000811020008000000002F
:10008000110200080000000000000000110200083A
:10009000000000001102000811020008110200080F
:1000A000000000001102000800000000110200081A
:1000B0000000000000000000000000000000000040
:1000C0000448054B10B5834203D0044B002B00D0ED
:1000D000984710BD0C0000200C000020000000001C
:1000E00006480749091A8B10C90FC91810B54910DD
:1000F00003D0044B002B00D0984710BD0C0000200B
:100100000C0000200000000010B5074C2378002BE5
:1001100009D1FFF7D5FF054B002B02D0044800E0C2
:1001200000BF0123237010BD0C0000200000000060
:1001300000120008054B10B5002B03D004490548F8
:1001400000E000BFFFF7CCFF10BDC046000000007C
:100150001000002000120008704700000C2270B54B
:10016000124E134D73681340082B0AD0114B2B60AD
:100170007368114A1B061B0FD35C2A68DA402A6099
:1001800070BD0F2374687268A40C1C40F16A0234BD
:10019000D20307D519400748013100F075FF4443E9
:1001A0002C60E5E7054B5C43FAE7C04600100240CF
:1001B0000000002000127A00A011000800093D0094
:1001C0000D488546FFF7C8FF0C480D490D4A00232E
:1001D00002E0D458C4500433C4188C42F9D30A4AFC
:1001E0000A4C002301E013600432A242FBD300F06A
:1001F000D5FE00F0CAFEFEE700100020000000203F
:100200000C000020001200080C000020680E0020E6
:10021000FEE7000072B6024A13880133138070476C
:1002200028000020044A1388013B9BB21380002B56
:1002300000D162B67047C0462800002010B50648BD
:1002400000F0ACFD00F0B4F900F01CF900F00EFD78
:1002500000F008FB10BDC046006CDC0210B500F0D9
:10026000FBFBFF23034A1B0411680B43136000F0E0
:10027000B3FD10BD20ED00E001235B42C360031D10
:10028000436083600023038370470023036170474A
:10029000038B10B5021D002B08D10A604A60416033
:1002A0008160016001330861038310BD84682160AF
:1002B0004C600A608160F5E7038B70B5002B02D1BA
:1002C000FFF7E6FF70BD8D68041D6A1C09D18268C6
:1002D000146801330C6061604A6011600861038337
:1002E000F0E722002468A668AE42FAD9F0E7036975
:1002F000016842684A6011601968814200D11A6041
:1003000000220261188B013880B218837047020006
:1003100003681B6808C2934201D11B68036003682D
:10032000D8687047F0B5274D0300296800290CD123
:10033000254A2648264C1171146091602A6082601B
:10034000244A016001310171146003220333934395
:10035000181E29D01F4F00203968994224D31B4A08
:1003600028689268904220D104790020012C1BD08B
:10037000146800209C4217D31000E61A0C30142E8B
:100380001BD91C000C3414190C3E26600026267163
:100390009668A660002E00D12C6001250C391360F0
:1003A000CB1A157194603B60F0BD14689C4202D377
:1003B0001479012CDCD19268D4E70123091B137155
:1003C0003960F1E7300000204000002034000020B8
:1003D000540800002C000020F7B5274C21680029A4
:1003E00015D0002813D00B680C33CB1898420ED2CE
:1003F000224DAB680C33984209D32A002B000C38ED
:10040000994208D0834203D11979002906D1F7BD5A
:100410001A009B68F4E78342F9D1F5E71848196898
:10042000066801918F1900261E719E680760002ED4
:100430000ED0317900290BD10C370199076037684C
:100440000C31C9191960B1689960002900D1236085
:1004500011790029DBD1AA42D9D02168994200D173
:10046000226001680C310160186811689B680918E6
:100470000C3111609360CAE7300000203400002086
:100480002C00002070B5FFF7C5FE104A104B11007C
:100490001A609B239B00D058002301261C000D00EE
:1004A00014351F2B0FD00D6001332900202BF6D1FE
:1004B000002C02D09B239B00D0500022054B1A70C9
:1004C000FFF7B0FE70BD34000020EDE7A408002067
:1004D000A0080020240B002010B50400FFF79AFEAE
:1004E000084B1A681C60237C2260012B02D1E06853
:1004F000FFF772FF044A1378013B1370FFF792FE77
:1005000010BDC046A0080020240B0020002303607B
:100510004360017243727047F8B504000D00FFF7A5
:1005200079FE627A237A934202D8FFF77BFEF8BD08
:100530000E4801781F29F8D80D4E0131336801703B
:100540001F683760002A08D101212360636061724F
:100550001A6000229D601A74E7E7616801320B603F
:100560000021636019606272F3E7C046240B00202B
:10057000A0080020427A0300101E08D01868016805
:100580001960012A04D100221A605A605A72704719
:10059000013AFBE70721012381438B4010B5C208D4
:1005A000024CD2B2A15C0B43A35410BD250B00201A
:1005B000002210B5034B09201A705A70FFF7EAFFAA
:1005C00010BDC046250B0020072201218243914027
:1005D00010B5C308024CDBB2E25C8A43E25410BDA2
:1005E000250B0020002030B5094B1A78002A08D0CE
:1005F0000023072101241500CB1A1D41254203D0F9
:1006000030BD08300133F0E7013003000B40F2E762
:10061000250B0020FEE710B500F068FBFCE70000AA
:10062000F8B507001C263037011D04003878084D46
:1006300070434019FFF72CFE38784643AD192B8BD9
:10064000012B01D1FFF7A6FF01234C342370F8BD25
:100650006C0B0020F8B5244B244D04001E6828685C
:100660000F000430FFF743FE002804D12B6830331D
:100670001878FFF7A9FF631C1AD1002F18D029683A
:100680001B480431FFF704FE03222B684C331A7019
:10069000FFF7A8FFC3B21C2043431648C0184368A5
:1006A000DA68154B1A6000221B684C331A70F8BDCB
:1006B0002B683419DC60A64209D9104B18682968E8
:1006C0000431FFF7F9FD2B6802224C33DFE70C4BB6
:1006D000186829680431FFF7EFFD0A4B1A68A24237
:1006E000F1D91C60EFE7C046B80C0020B00C002028
:1006F000880C00206C0B0020B40C0020680B00203C
:10070000600B002004000020F0B585B00093484B3A
:1007100005001B6802910392002B7AD0454A12789B
:10072000824276D982009F580192002F71D10B9B93
:100730009800FFF7F7FD041E6BD05020FFF7F2FD85
:10074000061E00D170E05022390000F049FC029AE8
:100750002000039B0B99F46200F050FB0B9B306070
:10076000736333003C331D7035003000009B30351F
:100770002B700A9B4030D9B2341DFFF7C7FE200012
:10078000FFF783FD30001830FFF77FFD009B3661D7
:10079000F3607662FFF73EFD274A138801339BB270
:1007A00013801388012B36D11C207843234B01374B
:1007B0001818FFF761FD0A2FF6D1214F3800FFF717
:1007C0005BFD2048FFF758FD1F48FFF755FD1F4B05
:1007D0001C4A1F601E4B1A601E4B1E601C27287887
:1007E000164B784321001818FFF752FD2878134B59
:1007F0004743DC19238B012B01D1FFF7CBFE3300DC
:1008000001224C331A70FFF70DFD094B019A1B684A
:100810009E5005B0F0BD0F4A1368303319782B781D
:100820009942DBD81660D9E72000FFF7D5FDF0E745
:10083000A80C0020AC0C0020640B00206C0B0020E6
:10084000280B0020440B0020880C0020600B0020A7
:10085000680B0020B00C0020014B18687047C046A0
:10086000B80C0020F7B5304C002C42D02F4800289F
:1008700008D084423DD02E4B001B984238D8C3107C
:100880002C4858432C4B2D4EC0B218702C4F431C93
:10089000307002302B4DC0B2387080002B70FFF7E3
:1008A00041FD294B1860002822D03A78002192009F
:1008B00000F096FB1D4B9C421DD3244C28782378D6
:1008C000012B08D0642301935C3B00930023204953
:1008D0001A00FFF719FF184B18782378012B07D05F
:1008E0001123002201931B490092083BFFF70CFFE4
:1008F000F7BD0020C6E720783378834212D9134A27
:10090000237B1278012A0DD0092B0BD861680029AE
:1009100008D06269102A05D9019222690092A26862
:10092000FFF7F2FE1834C5E7D011000800120008E6
:10093000B8170000ABAAAAAAA50C0020A40C00209E
:10094000AC0C0020AD0C0020A80C0020840C002072
:100950001706000815060008F8B52F4B2F4E1D6826
:1009600001351D60002D0CD12D4B2E4A19681068E1
:10097000186011601A68128B002A23D101235B4290
:10098000336033680027AB4207D8254B1A68128BB7
:10099000002A1CD101235B423360FFF723FEC3B260
:1009A0001C2043432048C018038B012B2FD9FFF78D
:1009B000AEFC1E4B186000221C4B01271B684C33F9
:1009C0001A7026E01B685B68DB68DB68D8E71B6889
:1009D0005B68DC68E3689D42DED3201DFFF787FC7F
:1009E000A36A002B03D020001830FFF780FC200002
:1009F000FFF716FE22000E4B30321B6812783033A0
:100A00001B789A42C1D2094B01271C60BDE7012F18
:100A1000D1D03800F8BDC046B80C0020040000203A
:100A2000600B0020680B00206C0B0020B40C002031
:100A3000B00C002010B5041E0BD0FFF7EBFB00211B
:100A40002000FFF707FE8022024B52051A60FFF7D5
:100A5000E9FB10BD04ED00E010B5FFF7C3FD1C235A
:100A600043430948C0184368DA68084B1A601A689B
:100A7000074B1A600022074B1A60074B013A1A60B5
:100A8000064B02321A7010BD6C0B0020B40C002013
:100A9000B00C0020B80C002004000020840C0020C2
:100AA00070B504000E00FFF7B5FB264D2B68002B38
:100AB00007D0254A1278A24203D9A4001859002869
:100AC00002D1FFF7AFFB70BD03004C331B78403001
:100AD000042B05D0052B28D03100FFF71DFDF0E7D2
:100AE0003100FFF719FD2B681859836A002B02D0DB
:100AF0001830FFF7FCFB2B681859FFF791FD2B68A6
:100B00001A59124B11001B683031303309781B78A9
:100B10009942D6D20E4B1A6000221B684C331A70D1
:100B200080220C4B52051A60CBE73100FFF7F4FC32
:100B30002B6818594369002BD5D00430FFF7D7FB39
:100B4000D1E7C046A80C0020AC0C0020B00C00205F
:100B5000B40C002004ED00E0F8B50500FFF75AFBE7
:100B6000194E1A4F33683A683C331B789B009858EB
:100B70004030FFF7FFFC0400002D21D000281FD1DA
:100B800001212800FFF766FD6B1C15D10422336894
:100B90004C331A7080220E4B52051A60FFF742FB4D
:100BA00033683A683C331B789B0098584030FFF715
:100BB000E1FC04002000F8BD336805224C33E8E76F
:100BC000FFF730FBF6E7C046B00C0020A80C002071
:100BD00004ED00E010B50400FFF71CFBFFF73CFE3E
:100BE000210023690831984206D9044B1868FFF7A1
:100BF00063FBFFF717FB10BD014BF7E7C40C0020A8
:100C0000000D0020084A1368198B084B002903D1F6
:100C1000012252421A6006E0126819685268D268CE
:100C200012698A42F6D37047000D002008000020A8
:100C300010B50400FFF7EEFA0A4A1378002B02D130
:100C4000FFF7F0FA10BD0849013B08681370A3696B
:100C500020600C60002BF3D020000830FFF747FB2A
:100C6000EEE7C046640E0020BC0C0020174B184A6B
:100C700070B513601A00FC32906B0022190014004A
:100C800001260D002C35072A1CD00D6001322900E9
:100C9000082AF6D1002C01D0FC33986300220D4DB8
:100CA0000D4B28001A70FFF7E7FA0C4C2000FFF7F5
:100CB000E3FA01220A4B52421D600A4B1C600A4BA8
:100CC0001A6070BD34000020E0E7C046040D00202B
:100CD000BC0C0020C80C0020640E0020E40C002096
:100CE000000D0020C40C002008000020F8B5FFF71C
:100CF000B3FD264F05003B68254E83420BD9254B9B
:100D0000254A19681068186011601B681B8B002B3E
:100D100016D1013B33603368AB4207D81D4B1A68CC
:100D2000128B002A0ED101235B42336030683D6094
:100D3000401BFFF711FF002801D0FFF7CDFBF8BDE6
:100D40000023E7E71B685B68DC6823699D42ECD3FE
:100D500020000830FFF7CBFA636A002B0BD09847CE
:100D6000A36A002B0DD05B1920002361FFF732FF2F
:100D7000FFF748FFD2E7631CD87FE169FFF790FED9
:100D8000EEE72000FFF754FFF2E7C046C00C00205A
:100D900008000020000D0020C40C002007B5FA2137
:100DA000890000F071F90190019A094B013A5A60EB
:100DB00000229A6007321A60064A13681B021B0A57
:100DC0001360802311681B060B43136007BDC046E8
:100DD00010E000E020ED00E006480068006880F3C5
:100DE000088862B661B6BFF34F8FBFF36F8F00DF25
:100DF000C046000008ED00E07047C04610B50B4C3F
:100E0000091989004018072180248843011F6404C0
:100E10000C6001240439A2430A6002000E210C3A3E
:100E20001160143A4038136010BDC046FFFFFF3F09
:100E300072B60949096808681030F0C880F309885B
:100E4000A046A946B246BB462038F0C870460D21E0
:100E50000843864662B67047B00C00207047C04613
:100E6000EFF3098000280AD02038F0C0A046A94638
:100E7000B246BB46F0C020380B49096808600A48F2
:100E80000A490A68026010681030F0C880F30988C7
:100E9000A046A946B246BB462038F0C870460D2190
:100EA0000843864670470000B00C0020B40C0020B8
:100EB0007047C04610B572B6FFF74EFD012803D14A
:100EC0008022024B52051A6062B610BD04ED00E0AC
:100ED000012310B51E4C22681343236002232268AD
:100EE0001A42FCD011221B4B1A6063681A4A134045
:100EF0006360A02362689B031343636080232268BE
:100F00005B041343236080239B0422681A42FCD0B5
:100F10000322636893431A00022313430C22636085
:100F200063681340082BFBD1FFF718F9802362692F
:100F30009B02134363619023DB051A680749114044
:100F4000802252000A431A60802252039A6110BD27
:100F500000100240002002400CF8C2FFFFFCFFFF1F
:100F600090221023D20551694B405361704710B550
:100F7000FFF7F6FF6420FFF75DFDF9E710B5FA24EF
:100F8000A4002000FFF756FDFBE710B5FFF7A0FF18
:100F9000FFF754F9FFF762F9FEE7000070B50C4D5A
:100FA0000C4E761BB61005D0002408CD01349847AE
:100FB000A642FAD100F0FCF8074D084E761BB61099
:100FC00005D0002408CD01349847A642FAD170BD5F
:100FD000C8110008C8110008C8110008CC11000889
:100FE000F0B50500830749D0541E002A45D0030000
:100FF0000326CAB202E00135013C3ED301332A7018
:101000003342F8D1032C30D9FF220A401502154390
:101010002A0415430F2C34D92700103F3F093E0105
:10102000B4461E001A00103666441560556095607F
:10103000D5601032B242F8D101373F01DB190F27DA
:101040000C22274022403C00002A0ED03E1FB6084A
:10105000B400A4461A001C1D644420C2A242FCD164
:1010600003240136B6009B193C40002C05D0C9B2C0
:101070001C19197001339C42FBD1F0BD0300140010
:10108000C0E72700E2E7C046002243088B4274D342
:1010900003098B425FD3030A8B4244D3030B8B4279
:1010A00028D3030C8B420DD3FF22090212BA030C82
:1010B0008B4202D31212090265D0030B8B4219D363
:1010C00000E0090AC30B8B4201D3CB03C01A524183
:1010D000830B8B4201D38B03C01A5241430B8B42CB
:1010E00001D34B03C01A5241030B8B4201D30B03B4
:1010F000C01A5241C30A8B4201D3CB02C01A5241DB
:10110000830A8B4201D38B02C01A5241430A8B429D
:1011100001D34B02C01A5241030A8B4201D30B0286
:10112000C01A5241CDD2C3098B4201D3CB01C01AA0
:10113000524183098B4201D38B01C01A52414309AA
:101140008B4201D34B01C01A524103098B4201D398
:101150000B01C01A5241C3088B4201D3CB00C01A05
:10116000524183088B4201D38B00C01A524143087D
:101170008B4201D34B00C01A5241411A00D20146A2
:10118000524110467047FFE701B5002000F006F815
:1011900002BDC0460029F7D076E770477047C046C9
:1011A0000000000000000000010203040607080917
:1011B000F8B5C046F8BC08BC9E467047F8B5C046B6
:0811C000F8BC08BC9E46704714
:0411C80035010008E5
:0411CC00090100080D
:1011D000010000007D0F0008000000000200000078
:1011E0000000000040000000000000006F0F000839
:1011F00000000000010000000000000040000000AE
:0C12000000127A00FFFFFFFFFFFFFFFF5E
:04000005080001C12D
:00000001FF
