:020000040800F2
:1000000000400020F91000084111000841110008CB
:1000100041110008411100084111000800000000D2
:10002000000000000000000000000000810E000839
:100030004111000800000000A10E0008D90E0008C0
:100040004111000841110008411100084111000848
:100050004111000841110008411100084111000838
:100060004111000841110008411100084111000828
:100070004111000841110008411100084111000818
:100080004111000841110008411100084111000808
:1000900041110008411100084111000841110008F8
:1000A0000000000041110008411100084111000842
:1000B00041110008411100084111000841110008D8
:1000C00041110008411100084111000841110008C8
:1000D00041110008411100084111000841110008B8
:1000E00041110008411100084111000841110008A8
:1000F00041110008000000000000000000000000A6
:1001000000000000000000000000000000000000EF
:1001100000000000000000000000000000000000DF
:1001200000000000000000000000000000000000CF
:0C01300000000000000000005FF808F173
:10013C000348044B834202D0034B03B1184770476A
:10014C0070000020700000200000000005480649E7
:10015C000B1AD90F01EBA301491002D0034B03B1C9
:10016C00184770477000002070000020000000004D
:10017C0010B5064C237843B9FFF7DAFF044B13B1E3
:10018C000448AFF300800123237010BD70000020E1
:10019C00000000008022000808B5044B1BB1044984
:1001AC000448AFF30080BDE80840CFE70000000032
:1001BC00740000208022000872B6024A13880133B2
:1001CC00138070478C000020034A1388013B9BB2BC
:1001DC00138003B962B670478C00002008B506483E
:1001EC0000F003FE00F0B4F900F018F900F052FD35
:1001FC00BDE8084000F016BB0048E80108B500F067
:10020C00FDFB4FF0E022D2F8203D43F47F03C2F80F
:10021C00203DBDE8084000F005BE4FF0FF33C36041
:10022C00031DC0E9013300230383704700230361DE
:10023C007047038B10B5021D43B9C1E90022C0E918
:10024C000111016001330861038310BD84682160D2
:10025C00C1E900248160F5E770B4048B02460B46BB
:10026C0014B970BCFFF7E5BF8D68691C0AD18168B1
:10027C00086801341860436059600B601A6114837C
:10028C0070BC70470430014600688668AE42FAD9EB
:10029C00EEE70369D0E900124A60116019688142E7
:1002AC0008BF1A6000220261188B013880B21883D3
:1002BC007047024603681B6842F8043B934204BF34
:1002CC001B6803600368D86870470000F0B5264EC1
:1002DC0032686AB9254B264940F654041A719A6063
:1002EC000A6001221C6033608B60224B0A711C6017
:1002FC00C31C33F0030335D01E4F3968994231D3F8
:10030C001B4A3068926890421FD10079012829D08D
:10031C0014689C4226D3E51A142D02F10C001CD94A
:10032C0003F10C0C0C3D42F80C50002502EB0C04B4
:10033C0025719568A56005B9346001250C391360E9
:10034C00CB1A157194603B60F0BD14689C4202D3CB
:10035C001479012CDCD19268D5E70123091B1371A8
:10036C003960F1E70020EFE794000020A4000020A2
:10037C009800002090000020F0B5254D296899B117
:10038C0090B10B680C330B4498420DD2214EB368DC
:10039C000C33984208D3324633460C38994207D076
:1003AC00834202D1197931B9F0BD1A469B68F5E741
:1003BC008342F9D1F6E70027174C196820681F71A2
:1003CC009F680844206077B197F804C0BCF1000F17
:1003DC0009D10C30206038680C3101441960B968BF
:1003EC00996001B92B6011790029DDD1B242DBD0C3
:1003FC0029681868994221689B6801F10C012160F9
:10040C00116808BF2A6001440C3111609360CBE77E
:10041C0094000020980000209000002010B5FFF7F9
:10042C00CBFE0F4A0F4BD2F86C021A6000231C460D
:10043C0002F114011F2B03F1010312BF41F8141C2C
:10044C0001240020202B01F11401F3D10CB1C2F8CE
:10045C006C020022044B1A70BDE81040FFF7B4BECA
:10046C000809002004090020880B002010B5044660
:10047C00FFF7A2FE084B1A681C60237C2260012B3C
:10048C0002D1E068FFF778FF044A1378013B137040
:10049C00BDE81040FFF798BE04090020880B00202F
:1004AC0000230172C0E9003343727047F8B504466B
:1004BC000D46FFF781FE627A237A934203D8BDE89A
:1004CC00F840FFF781BE0E4908781F28F7D80D4E6B
:1004DC000130336808701F68376042B90121C4E9E4
:1004EC00003361721A6000229D601A74E7E761683C
:1004FC0001320B600021636019606272F3E700BF88
:10050C00880B002004090020427A03466AB1012AB4
:10051C0008BF0022006818BF02F1FF3201685A724E
:10052C00196008BFC3E900227047104670470000ED
:10053C000123C0F3C702054900F00700C0F1070012
:10054C0003FA00F08B5C184388547047890B002029
:10055C000022034B09201A705A70FFF7E9BF00BF45
:10056C00890B00200123C0F3C702054900F00700E6
:10057C00C0F107008340885C20EA03008854704770
:10058C00890B00200020094B13F8012B3AB10023F2
:10059C00C3F1070342FA03F3DB0702D570470830B7
:1005AC00F2E7013000F00703F2E700BF890B0020EF
:1005BC00FEE708B500F0ACFBFCE7000070B50446A4
:1005CC001C260A4D90F83000211D06FB0050FFF749
:1005DC0030FE94F8300006FB00552B8B012B01D11B
:1005EC00FFF7A6FF012384F84C3070BDD00B002020
:1005FC00F8B5224B224C06461D6820680F46043085
:10060C00FFF747FE20B9236893F83000FFF7AAFFE5
:10061C00731C19D1C7B121681A480431FFF709FEC0
:10062C000322236883F84C20FFF7ACFF1C22C3B2D3
:10063C00154802FB03004368DA68144B1A60002269
:10064C001B6883F84C20F8BD2368AD19DD6008D316
:10065C000F4B186821680431FFF7FEFD0222236856
:10066C00E0E70C4B186821680431FFF7F5FD0A4BE5
:10067C001A68AA4288BF1D60F0E700BF1C0D00205D
:10068C00140D0020EC0C0020D00B0020180D0020C5
:10069C00CC0B0020C40B0020000000202DE9F74FEC
:1006AC0098460C9B074601934B4B8A461B68934616
:1006BC00DDF83490002B00F08680484A1278824294
:1006CC0040F2818053F82050002D7CD14FEA8900F4
:1006DC00FFF7FCFD0646002875D05020FFF7F6FD0D
:1006EC000446002872D05022294600F069FE5B4671
:1006FC00524649463046E66200F0A6FB9DF80410CF
:10070C002060C4F8349004F1400084F83C7084F804
:10071C00308004F10409FFF7C3FE4846FFF786FD5D
:10072C0004F11800FFF782FD24616462C4F80C80A8
:10073C00FFF742FD2A4A2B4E138801339BB21380DC
:10074C0013889BB2012B1CD1B04640460135FFF7F4
:10075C0064FD0A2D08F11C08F7D1DFF88C80234DBD
:10076C004046FFF75AFD2846FFF757FD2048FFF794
:10077C0054FD204BC3F800801F4B1D601F4B1C60A9
:10078C0007E01E4B1A6892F8301094F83020914212
:10079C00F5D91C2594F83000494605FB0060FFF79D
:1007AC0048FD94F8300005FB0066338B012B01D11A
:1007BC00FFF7BEFE012384F84C30FFF705FD064B16
:1007CC001B6843F8274003B0BDE8F08F304603B0F8
:1007DC00BDE8F04FFFF7D0BD0C0D0020100D002030
:1007EC00C80B0020D00B00208C0B0020A80B002085
:1007FC00EC0C0020C40B0020CC0B0020140D0020AE
:10080C00014B1868704700BF1C0D0020014B187875
:10081C00704700BF080D0020014B1878704700BFCF
:10082C00110D0020324B2DE9F743002B46D03148F7
:10083C0048B1834242D0C01A41F2B87398423AD8B8
:10084C002D4BC01058432D4F2D4DC0B2431C38704A
:10085C0028702C4C0230C0B22B4E207080003370AC
:10086C00FFF734FD294A106028B32278002192004A
:10087C0000F0A6FD1E4CDFF87C80DFF89490444518
:10088C001ED3234C30782378012B08D00823642204
:10089C00CDE9003200231F491A46FFF7FFFE2378EB
:1008AC002878012B07D0112300221B49CDE9002306
:1008BC000923FFF7F3FE03B0BDE8F0830020C2E785
:1008CC0020783B78834211D999F80020237B012AA8
:1008DC000CD0092B0AD8616841B16269102A05D97C
:1008EC00019222690092A268FFF7D8FE1834C6E77D
:1008FC006822000880220008ABAAAAAA080D0020D2
:10090C00090D0020100D0020110D00200C0D0020F1
:10091C00E80C0020BF050008BD0500082DE9F843D0
:10092C002F4B304F1D6801351D605DB92E4B2F4A82
:10093C0019681068186011601A68128B32BB4FF07E
:10094C00FF333B603B680026AB420AD8DFF8988047
:10095C00DFF89C90D8F800301B8BE3B94FF0FF33D5
:10096C003B60FFF70FFE1C22C3B2224802FB0300C0
:10097C00038B012B2ED9FFF79CFC1F4B1860002218
:10098C001D4B01261B6883F84C2025E01B685B6817
:10099C00DB68DB68D5E7D8F800305B68DC68E368B7
:1009AC009D42DDD3201DFFF774FCA36A1BB104F13B
:1009BC001800FFF76EFC2046FFF700FED9F8003058
:1009CC0094F8302093F830309A42C3D20A4B012667
:1009DC001C60BFE7002ED2D13046BDE8F88300BFC3
:1009EC001C0D002000000020C40B0020CC0B0020AC
:1009FC00140D0020D00B0020180D002008B5FFF7B7
:100A0C00C1FD1C220A4B02FB00335B68DA68094B00
:100A1C001A601A68084B1A600022084B1A604FF0D3
:100A2C00FF32074B1A600122064B1A7008BD00BF3B
:100A3C00D00B0020180D0020140D00201C0D0020E0
:100A4C0000000020E80C002070B5294D04460E462D
:100A5C00FFF7B2FB2B6833B1264A1278A24202D9B7
:100A6C0053F8240018B9BDE87040FFF7ADBB90F8FF
:100A7C004C304030042B05D0052B2BD03146FFF7E2
:100A8C0015FDF0E73146FFF711FD2B6853F82400F4
:100A9C00836A13B11830FFF7FCFB2B6853F8240062
:100AAC00FFF78CFD2B6853F82420134B92F8301071
:100ABC001B6893F830309942D5D2104B1A60002243
:100ACC001B6883F84C204FF0E0234FF08052C3F8A2
:100ADC00042DC8E73146FFF7E9FC2B6853F82400D6
:100AEC004369002BD1D00430FFF7D3FBCDE700BF17
:100AFC000C0D0020100D0020140D0020180D0020EE
:100B0C00F8B5194E0446194FFFF756FB336893F8A6
:100B1C003C203B6853F822004030FFF7F5FC0546BB
:100B2C00F4B1E8B920460121FFF762FD01340CBF96
:100B3C0004220522336883F84C204FF0E0234FF059
:100B4C008052C3F8042DFFF73FFB336893F83C2029
:100B5C003B6853F82200BDE8F8404030FFF7D4BCA6
:100B6C00FFF732FB2846F8BD140D00200C0D0020B9
:100B7C0010B50446FFF720FBFFF742FE236904F192
:100B8C00080198428CBF044B044B1868FFF764FBB8
:100B9C00BDE81040FFF718BB280D0020640D0020A5
:100BAC00084A1368198B084B19B94FF0FF321A60B9
:100BBC0006E0126819685268D26812698A42F6D344
:100BCC00704700BF640D0020040000202DE9F047A1
:100BDC00DDF820A01D468146884617469DF8246006
:100BEC00FFF714FEA84203D800242046BDE8F08786
:100BFC00FFF712FEA842F7D0BAF1000F01D1012E77
:100C0C00F2D0FFF7D9FA124A1378072B02D8114801
:100C1C00046814B9FFF7D8FAE6E7216801330160DC
:100C2C001370FFF7D1FA84F80490C4F81C80676243
:100C3C0084F820503EB1012E07D004F10800FFF7D4
:100C4C00F5FA6461D1E7A662F7E7C4F828A0F4E7E7
:100C5C00C80E0020200D002010B50446FFF7ACFA9A
:100C6C000A4A13781BB9BDE81040FFF7ADBA084922
:100C7C00013B08681370A36920600C60002BF2D054
:100C8C0004F10800FFF705FBEDE700BFC80E0020DC
:100C9C00200D002038B5164A164BD2F834011A60D4
:100CAC0000231C4602F12C01072B03F1010312BF98
:100CBC0041F82C1C01240020082B01F12C01F3D14C
:100CCC000CB1C2F8340100220B4D0C4B0C4C2846D5
:100CDC001A70FFF7A2FA2046FFF79FFA4FF0FF3287
:100CEC00084B1D60084B1C60084B1A6038BD00BFD8
:100CFC00680D0020200D00202C0D0020C80E0020B7
:100D0C00480D0020640D0020280D00200400002058
:100D1C002DE9F041FFF774FD264F05463B68264E42
:100D2C0083420BD9254B264A19681068186011604C
:100D3C001B681B8BC3B94FF0FF3333603368AB4276
:100D4C0008D8DFF87880D8F800301B8B73B94FF0D7
:100D5C00FF33336030683D60401BFFF7D1FE38B382
:100D6C00BDE8F041FFF782BB0023E6E7D8F800307E
:100D7C005B68DC6823699D42EBD304F10800FFF744
:100D8C0088FA636A53B19847A36A6BB12B44204627
:100D9C002361FFF7EDFEFFF703FFD4E7E16994F859
:100DAC002000FFF751FEEFE72046FFF755FFF2E773
:100DBC00BDE8F081240D002004000020640D00200B
:100DCC00280D002038B50D460446FFF719FD2844C0
:100DDC0020612046FFF7CCFEFFF7E2FEFFF71CFD7B
:100DEC00BDE838400021FFF72FBE4FF47A73B0FBFB
:100DFC00F3F04FF0E02382B00190019A013A5A616E
:100E0C0000229A6107221A61D3F8202D22F07F422A
:100E1C00C3F8202DD3F8202D42F08052C3F8202D9A
:100E2C0002B0704706480068006880F3088862B614
:100E3C0061B6BFF34F8FBFF36F8F00DF00BF0000B1
:100E4C0008ED00E0704700BF01F18041013900EB73
:100E5C00810020F0070022F0010240F8082C4FF02E
:100E6C0080710E2240F8041C40F80C2C40F8203CF9
:100E7C004038704772B6064909680868B0E8F00F48
:100E8C0080F309884EF00D0E62B670477047000073
:100E9C00140D0020EFF3098028B1203880E8F00F02
:100EAC00084909680860074807490A680260106821
:100EBC0090E8F00F203080F309884EF0040E704754
:100ECC0070470000140D0020180D002008B572B6F4
:100EDC00FFF724FD012802BF4FF0E0234FF08052B2
:100EEC00C3F8042D62B608BD0E4AD36943F0020361
:100EFC00D3610D4B1A6822F440521A601A6842F4FE
:100F0C0080521A605A6822F040025A609A6822F4A1
:100F1C0040529A60DA6822F44052DA604FF4800250
:100F2C009A6170470038024000040240044B5A6931
:100F3C0052064CBF4FF4800240229A61704700BFAA
:100F4C00000402401E4B4FF4E131DA6942F0010219
:100F5C00DA611A6A42F480421A62A3F560531A6885
:100F6C0022F470121A601A6842F420121A605A683D
:100F7C0022F4C0625A609A6822F470129A60DA689D
:100F8C0022F47012DA60DA6842F4A012DA605A6A5B
:100F9C0022F47F625A625A6A42F4EE625A6200226A
:100FAC00A3F54843DA601A615A61064A126802F5E1
:100FBC006142B2FBF1F29A6042F20C02DA607047C5
:100FCC00003802400800002008B5FFF78DFFBDE88F
:100FDC000840FFF7B7BF0000024B1868C0F3C01001
:100FEC00704700BF00380140024608B5FFF7F4FF18
:100FFC000028FBD0014B5A6008BD00BF00380140EF
:10100C0008B518B1411E11F8010F00B908BDFFF762
:10101C00EBFFF8E7314B1A6842F480721A601A68D9
:10102C009105FCD55A6822F4604242F440425A6061
:10103C009A6822F003029A60284B9A6812F00C0FFF
:10104C00FBD1202200BF013AFCD11A6822F0807239
:10105C001A60224B1A689201FCD45A6A42F08052F0
:10106C005A621F4A136823F4C05343F4006313609D
:10107C005368D806FCD407221A4B1A60A3F5806378
:10108C001A6842F001021A601A689107FCD59A6836
:10109C0022F0030242F001029A60104B9A6802F0AF
:1010AC000C02042AFAD199680F4A0A409A609A688D
:1010BC0042F408029A601A6842F080721A60074B78
:1010CC001A689201FCD59A6842F003029A609A68F9
:1010DC0002F00C020C2AFAD1704700BF0038024013
:1010EC0000700040003C02400FC002FFFFF792FF6F
:1010FC000B480C490C4A002302E0D458C45004336A
:10110C00C4188C42F9D3094A094C002301E013603E
:10111C000432A242FBD300F0B9F800F021F870477A
:10112C0000000020700000208022000870000020C9
:10113C00DC0E0020FEE70FB400B5A3B024AB53F8CF
:10114C00042B802102A8019300F08CF97F2802D88F
:10115C0002A8FFF755FF23B05DF804EB04B070470D
:10116C0007B5FFF731FF1648FFF7E5FF1548FFF706
:10117C00E2FF1548FFF7DFFF1448FFF7DCFF1448C8
:10118C00FFF7D9FF1348FFF7D6FF0D48FFF7D3FF42
:10119C0011491248FFF7CFFFFFF720F80023012277
:1011AC0000930D490E48FFF7C6FF0B490D48FFF79A
:1011BC00C2FF09490C48FFF7BEFFFFF71FF8FEE717
:1011CC00BE210008CC200008EA20000808210008F5
:1011DC00262100084421000862210008672100082C
:1011EC007721000892210008A82100082DE9F74F6B
:1011FC0000234FF4FA7401211A461846CDE9004138
:10120C00FFF7E4FC10B12146FFF7DCFD1C4FDFF8C3
:10121C007480DFF874904FF0FF30FFF771FC0546D7
:10122C000028F8D08368012B25D1FFF7E9FA044692
:10123C00FFF77CFE4FF47A704EF66022B4FBF0F3AD
:10124C003C26B4FBF2F2B4FBF7F14FF0180CB3FBF5
:10125C00F6FBB2FBF6FAB1FBFCFE00FB134406FBFB
:10126C001A22484606FB1B330CFB1E11CDF80480DA
:10127C000094FFF760FF2846FFF7F8F8CBE700BFB4
:10128C0080EE3600FF210008C121000870B50D4E1C
:10129C000D4D761BB61006D0002455F8043B0134D6
:1012AC009847A642F9D1094E094D00F0C7FF761BAD
:1012BC00B61006D0002455F8043B01349847A642DA
:1012CC00F9D170BD60220008602200086422000879
:1012DC0060220008844641EA000313F0030349D15D
:1012EC00403A23D30B6803604B6843608B68836080
:1012FC00CB68C3600B6903614B6943618B69836184
:10130C00CB69C3610B6A03624B6A43628B6A83626B
:10131C00CB6AC3620B6B03634B6B43638B6B836353
:10132C00CB6BC36340304031403ADBD230320BD30D
:10133C000B6803604B6843608B688360CB68C36049
:10134C0010301031103AF3D20C3205D351F8043B63
:10135C0040F8043B043AF9D2043208D0D2071CBF3F
:10136C0011F8013B00F8013B01D30B880380604668
:10137C00704700BF082A13D38B07B1D010F00303BA
:10138C00AED0C3F10403D21ADB071CBF11F8013B2A
:10139C0000F8013BA4D331F8023B20F8023B9FE755
:1013AC00043AD9D3013A11F8013B00F8013BF9D2C8
:1013BC000B7803704B7843708B7883706046704762
:1013CC00830730B548D0541E002A3FD00346CAB21A
:1013DC0001E0013C3AD303F8012B9D07F9D1032C12
:1013EC002DD9CDB245EA05250F2C45EA054536D950
:1013FC00A4F1100222F00F0C03F1200EE6444FEA88
:10140C00121C03F1100242E9045542E90255103254
:10141C007245F8D10CF1010214F00C0F03EB02121F
:10142C0004F00F0C13D0ACF1040323F003030433CA
:10143C00134442F8045B9342FBD10CF003042CB12F
:10144C00CAB21C4403F8012B9C42FBD130BD64464C
:10145C001346002CF4D1F9E703461446BFE71A46AD
:10146C00A446E0E710B5194C002924689AB028DB93
:10147C00009004904FF402704FF6FF7CADF80C0016
:10148C0011D001390291059120466946ADF80EC084
:10149C0000F034F9421C01DA8B2323600022009BFC
:1014AC001A701AB010BD0291059120466946ADF82C
:1014BC000EC000F023F9431C01DA8B2323601AB011
:1014CC0010BD8B234FF0FF302360F8E70C00002099
:1014DC0030B51446002C05469BB029DB1A464FF458
:1014EC0002734FF6FF7C00910491ADF80C3011D0D3
:1014FC00013C69461E9B02940594ADF80EC000F0A9
:10150C00FDF8421C01DA8B232B600022009B1A7021
:10151C001BB030BD1E9B694602940594ADF80EC0FD
:10152C0000F0ECF8431C01DA8B232B601BB030BDB0
:10153C008B234FF0FF302B60F8E700BF2DE9F0470D
:10154C008F680C469F421D46164638D882468889BD
:10155C0010F4906F0ED13D4608682A46314600F0D3
:10156C001BFC0020A2682368D21B2B44A2602360C2
:10157C00BDE8F0874B69096903EB4308236808EB66
:10158C00D878A3EB01096B1C4FEA68084B44434520
:10159C00424684BF98464246430513D511465046F1
:1015AC0000F0DCFC074608B34A462169FFF792FEBF
:1015BC00A38923F4906343F08003A38107E01F46C3
:1015CC000868CAE7504600F025FD074650B107EB06
:1015DC000900A8EB09032761C4F814802F46A36007
:1015EC002060BAE75046216900F052FC0C23CAF87F
:1015FC000030A3894FF0FF3043F04003A381B7E7DD
:10160C002DE9F04F9368914683B0002B6ED017688C
:10161C0080460C4608688D68083744E0B4F80CC066
:10162C001CF4906F2ED0D4E90413451A03EB43033A
:10163C0003EBD373AA194FEA630A531C5345524662
:10164C0084BF9A4652461CF4806F36D011464046F1
:10165C0000F084FC00283AD02A4621690190FFF75B
:10166C0039FEA289019B22F4906242F08002A28191
:10167C005819AAEB0505A560C4F814A03546B24666
:10168C00236120605946524600F086FBD9F8083099
:10169C00A16820684D1B50449E1BA5602060C9F8B2
:1016AC0008601EB3083757E902B6002EFAD0B542CF
:1016BC00AA46B3D93546B246E4E7404600F0AAFC48
:1016CC0003460028D4D14046216900F0E1FB0C23ED
:1016DC0000224FF0FF30C8F80030A38943F04003DC
:1016EC00A381C9E9012203B0BDE8F08F002318469D
:1016FC00C9F8043003B0BDE8F08F00BF2DE9F04FFE
:10170C001C468B890F461D06804692469DB003D51C
:10171C000B69002B00F0F380002309933023202267
:10172C008DF82A309AF80030039401257B4C8DF803
:10173C002920002B76D0D14603E019F8013F002B6D
:10174C0079D0252BF9D1B9EB0A0B77D199F8002078
:10175C00002A67D000234FF0FF3209F10109CDE9CF
:10176C000523049307938DF853301A9304E0001B60
:10177C0005FA00F018430490CA460522204619F8D1
:10178C00011B00F0C1FA049B0028F0D1D80644BF1D
:10179C0020228DF85320190748BF2B229AF80010ED
:1017AC0048BF8DF853202A2956D1039A1168043268
:1017BC00002903927EDB07919AF801100AF1010AC5
:1017CC002E295BD0DFF858910322484600F09CFA92
:1017DC0048B14022049BA0EB090002FA00F003433D
:1017EC000AF1010A04931AF8011B06224D488DF8E0
:1017FC00281000F089FA002862D04B4B002B52D0F5
:10180C0003A900913A464046484B04A9AFF3008027
:10181C000646721C06D0099B334409939AF8003093
:10182C00002B88D1BB895B064CBF4FF0FF30099869
:10183C001DB0BDE8F08FB9EB0A0BF3D05B465246F6
:10184C0039464046FFF77AFE0130EBD0099B99F8F8
:10185C0000205B4409937BE7A1F13002092AAFD841
:10186C00079B1AF8011F03EB830302EB4303A1F15F
:10187C003002092AF5D92E290793A3D19AF8011021
:10188C002A2927D1039B0AF102001A680433002A83
:10189C000393B8BF4FF0FF339AF8021005928246BB
:1018AC00B8BF05938EE7039B073323F00703083378
:1018BC000393B0E7494243F00203079104937BE79B
:1018CC0003A900913A464046184B04A900F0C6F80B
:1018DC0006469EE70023A1F13002092A0AF1010A0B
:1018EC0005933FF66FAF1AF8011F03EB830302EB6E
:1018FC004303A1F13002092AF5D9059362E740218F
:10190C0000F02CFB3860386110B140237B6103E799
:10191C000C234FF0FF30C8F8003089E70C22000888
:10192C0014220008182200080000000049150008C5
:10193C002DE9F04791461E460A698B680C469A427F
:10194C00B8BF1A46C9F8002091F843300546DDF8B7
:10195C00208013B10132C9F80020226891065DD5B0
:10196C00D9F800300233C9F80030226812F0060FA3
:10197C0011461ED1E168CB1A002BD8BF114618DDD9
:10198C00002704F1190A06E0D9F80030E268A2EB4E
:10199C00030CBC450CDD0123524631462846C0479A
:1019AC00013007F10107EFD14FF0FF30BDE8F087B0
:1019BC00216894F84330003B18BF01238A060AD5EE
:1019CC003021E21882F8431094F845105A1C224436
:1019DC00023382F843103146284604F14302C047D3
:1019EC000130E1D0236803F00603042B1DD0A3685B
:1019FC002269934225DD00279B1A1F4404F11A0922
:101A0C00002401E0BC421CDA01234A463146284638
:101A1C00C047013004F10104F4D1C5E712F0060F00
:101A2C0012D0003B18BF0123D5E7D9F80030E1688C
:101A3C002269C91AA36821EAE1779342DCDC002908
:101A4C00DCDC0020BDE8F087E168D9F80030CB1A67
:101A5C00002BD8BF114693DCABE700BF2DE9F04358
:101A6C0017460A7E85B00C46064698460C9D01F139
:101A7C00430C002A33D0A2F15803D9B2202967D8DD
:101A8C00202B65D8DFE813F0DD00640064006400EF
:101A9C006400640064006400640064006400A300DB
:101AAC006E0064006400640064006E0064006400F6
:101ABC006400640021007F00BF0064006400AE007D
:101ACC0064007F0064006400E40023681A0640F19F
:101ADC0002812B686269191D29601B681A6000233A
:101AEC00E14623613B4621463046CDF8008003AAEF
:101AFC00FFF71EFF013020D04A4639463046236995
:101B0C00C047013019D02368E0689B07039919D5A9
:101B1C00431A002B16DD002504F1190904E0E068D6
:101B2C000399431AAB420DDD01234A463946304630
:101B3C00C047013005F10105F1D14FF0FF3005B080
:101B4C00BDE8F0838842B8BF084605B0BDE8F08315
:101B5C00012384F8422004F142092361002384F814
:101B6C004330BFE72368190602D45A0600F1BF8040
:101B7C0029680A68043129601146002A6ADB0A25A3
:101B8C00DFF87CE110E02368180640F19A802B689E
:101B9C00191D296019686F2A0CBF08250A25DFF862
:101BAC0060E1002384F843306268002AA2607DDB88
:101BBC00236823F004032360002959D1002A77D12C
:101BCC00E146082D63D0ACEB090323618AE70122BF
:101BDC002B6804F14209196804332B6084F8421015
:101BEC002261BBE72B6800211A1D2A60D3F80090F4
:101BFC006268484600F088F800287FD0A0EB090006
:101C0C0060602061AAE7236843F0200323607822F8
:101C1C00DFF8F0E084F845202A68111D29601906C8
:101C2C0042D45D0640D51188D80744BF43F0200349
:101C3C002360002943D12368102523F0200323605F
:101C4C00AFE75823DFF8B8E084F845302368E3E7C2
:101C5C002368DCE72D2284F8432062684942002A7D
:101C6C00A26002DB23F0040323600A25DFF890E076
:101C7C00E146B1FBF5F30A4605FB131019461EF8B5
:101C8C000030AA4209F8013DF3D2082D9BD12368FC
:101C9C00D90798D5626823699A4294DC302309F1FC
:101CAC00FF3989F800308EE71168BDE70029DFD1D4
:101CBC009EF8003004F1420984F8423081E7102587
:101CCC006FE713F0400F2B6803F1040129600CBF80
:101CDC00196819885FE713F0400F2B68626903F1EC
:101CEC00040129601B6814BF1A801A60F7E62A6881
:101CFC00B2F9001004322A600A463EE7606880E7B9
:101D0C0020220008342200085FFA81FC810710D0E1
:101D1C000346511E2AB90AE09A0718460AD001391F
:101D2C0005D3184613F8012B6245F5D170470020F6
:101D3C007047114603290CD80029F8D003460144FA
:101D4C0001E08B42F3D0184613F8012B6245F8D111
:101D5C00ECE7024610B54CEA0C2444EA0444104665
:101D6C00036804326340A3F1013E2EEA030313F02F
:101D7C00803F04D1043903291046F0D851B10346F1
:101D8C00014401E08B4205D0184613F8012B624543
:101D9C00F8D110BD002010BD88420DD98B1883429C
:101DAC000AD900EB020CBAB1624613F801CD994284
:101DBC0002F801CDF9D170470F2A0ED8034602F173
:101DCC00FF3C4AB10CF1010C013B8C4411F8012B86
:101DDC00614503F8012FF9D1704740EA01039B07D5
:101DEC004FD1A2F1100370B501F1200C23F00F05B7
:101DFC0001F1100E00F11004AC441B095EF8105CEC
:101E0C000EF1100E44F8105C5EF81C5C103444F8B3
:101E1C001C5C5EF8185C44F8185C5EF8145CE645D3
:101E2C0044F8145CEAD1013312F00C0F01EB0311EE
:101E3C0002F00F0400EB031327D08E46043C24F071
:101E4C0003064FEA940C1E441C1F5EF8045B44F816
:101E5C00045FB442F9D10CF1010402F0030203EB6C
:101E6C00840301EB840102F1FF3C4AB10CF1010C3B
:101E7C00013B8C4411F8012B614503F8012FF9D17A
:101E8C0070BD034602F1FF3C9CE72246EBE700BF26
:101E9C00002952D038B551F8043C0C1F002BB8BFA8
:101EAC00E418054600F0F0F82B4A1368002B45D0D7
:101EBC00A3420CD921686018834228D0636028465D
:101ECC001460BDE8384000F0E1B8A3420FD81A46C0
:101EDC005B68002BF9D11168501884421DD034D3A3
:101EEC00636054602846BDE8384000F0CFB81168F4
:101EFC005018A04215D028D8216860188342EFD121
:101F0C0018685B680144C4E900135460EAE7186878
:101F1C005B680144C4E90013D1E7236819441160DC
:101F2C00E0E720680144501883421160DAD1D3E90C
:101F3C0000030144C2E90013D4E7704728466360EC
:101F4C001460BDE8384000F0A1B80C2328462B6083
:101F5C00BDE8384000F09AB8CC0E0020F8B5CD1C86
:101F6C0025F0030508350C2D38BF0C25002D064631
:101F7C0023DBA94221D8264F00F086F83A6822B319
:101F8C00144603E063682246FBB11C4623685B1BC6
:101F9C00F8D40B2B15D8636894420CBF3B6053608C
:101FAC00304600F073F804F10B00231D20F00700FD
:101FBC00C21A01D01B1AA350F8BD0C2300203360A9
:101FCC00F8BD23601C442560EAE77968D1B1294645
:101FDC00304600F047F8431C01460CD0C41C24F0DA
:101FEC000304A04205D03046611A00F03BF80130E2
:101FFC0001D02560D4E70C233046336000F046F85E
:10200C000020F8BD304600F02DF87860DFE700BF07
:10201C00CC0E0020F8B51446F9B1CAB106460D46EF
:10202C0000F036F8A04202D32F463846F8BD2146C0
:10203C003046FFF793FF07460028F6D02246294684
:10204C00FFF748F930462946FFF722FF3846F8BD1E
:10205C002746FFF71DFF3846F8BD1146BDE8F8408E
:10206C00FFF77CBF002238B5064D044608462A60AF
:10207C0000F018F8431C00D038BD2B68002BFBD0A7
:10208C00236038BDD40E0020704700BF704700BFDE
:10209C0051F8040C0028A0F10400BCBF0B58C01868
:1020AC00704700BF044A05491368002B08BF0B4654
:1020BC001844106018467047D80E0020DC0E002023
:1020CC00202020205F202020205F20205F5F202008
:1020DC005F5F5F20205F5F5F5F20200D0A00202084
:1020EC00202F205C20207C207C2F202F202F205F75
:1020FC00205C2F205F5F5F7C200D0A0020202F20AA
:10210C005F205C207C2027202F207C207C207C20C2
:10211C005C5F5F5F205C200D0A00202F205F5F5FFB
:10212C00205C7C202E205C207C207C5F7C207C5FD3
:10213C005F5F29207C0D0A002F5F2F2020205C5F21
:10214C005C5F7C5C5F5C205C5F5F5F2F7C5F5F5FD4
:10215C005F2F200D0A004D41494E005B25735D0930
:10216C00496E6974204253500D0A005B25735D095A
:10217C00496E697420414B4F53207625752E257579
:10218C002E25750D0A005B25735D094578616D7010
:10219C006C653A2054494D45520D0A005B25735D20
:1021AC00095374617274207363686564756C65722D
:1021BC000D0A0D0A005B2530326C752D2530326C02
:1021CC00752D2530326C75202530336C75206D7370
:1021DC005D205B25735D0974696D6572206578708F
:1021EC00697265642C20746F67676C65204C45447C
:1021FC000D0A005441534B2054494D4552000000E8
:10220C00232D302B20000000686C4C006566674560
:10221C004647000030313233343536373839414295
:10222C0043444546000000003031323334353637F4
:10223C00383961626364656600000000F8B500BF60
:10224C00F8BC08BC9E467047F8B500BFF8BC08BC8B
:04225C009E467047E3
:04226000A5010008CC
:042264007D010008F0
:1022680000000000F9110008000000000200000052
:0822780004000000C00000009A
:10228000FFFFFFFFFFFFFFFF0048E80110000020F5
:10229000000000000000000000000000000000003E
:1022A000000000000000000000000000000000002E
:1022B000000000000000000000000000000000001E
:1022C000000000000000000000000000000000000E
:1022D00000000000000000000000000000000000FE
:1022E00000000000000000000000000000000000EE
:04000005080010F9E6
:00000001FF
