:020000040800F2
:1000000000400020C9010008110200081102000888
:10001000110200081102000811020008000000008F
:10002000000000000000000000000000D10E0008E9
:100030001102000800000000F10E0008290F00085E
:100040001102000811020008110200081102000844
:100050001102000811020008110200081102000834
:100060001102000811020008110200081102000824
:100070001102000811020008110200081102000814
:100080001102000811020008110200081102000804
:1000900011020008110200081102000811020008F4
:1000A00000000000110200081102000811020008FF
:1000B00011020008110200081102000811020008D4
:1000C00011020008110200081102000811020008C4
:1000D00011020008110200081102000811020008B4
:1000E00011020008110200081102000811020008A4
:1000F00011020008000000000000000000000000E5
:1001000000000000000000000000000000000000EF
:1001100000000000000000000000000000000000DF
:1001200000000000000000000000000000000000CF
:0C01300000000000000000005FF808F173
:10013C000348044B834202D0034B03B1184770476A
:10014C0008000020080000200000000005480649B7
:10015C000B1AD90F01EBA301491002D0034B03B1C9
:10016C00184770470800002008000020000000001D
:10017C0010B5064C237843B9FFF7DAFF044B13B1E3
:10018C000448AFF300800123237010BD0800002049
:10019C0000000000E810000808B5044B1BB104492E
:1001AC000448AFF30080BDE80840CFE70000000032
:1001BC000C000020E810000870470000FFF7FCFF5F
:1001CC000B480C490C4A002302E0D458C4500433A9
:1001DC00C4188C42F9D3094A094C002301E013607E
:1001EC000432A242FBD300F0E7FE00F0DDFE7047C4
:1001FC000000002008000020E81000080800002083
:10020C00640E0020FEE7000072B6024A1388013328
:10021C001380704724000020034A1388013B9BB2D3
:10022C00138003B962B670472400002008B5064855
:10023C0000F003FE00F0B4F900F018F900F052FDE4
:10024C00BDE8084000F016BB68FF1F0008B500F0C1
:10025C00FDFB4FF0E022D2F8203D43F47F03C2F8BF
:10026C00203DBDE8084000F005BE4FF0FF33C360F1
:10027C00031DC0E90133002303837047002303618E
:10028C007047038B10B5021D43B9C1E90022C0E9C8
:10029C000111016001330861038310BD8468216082
:1002AC00C1E900248160F5E770B4048B02460B466B
:1002BC0014B970BCFFF7E5BF8D68691C0AD1816861
:1002CC00086801341860436059600B601A6114832C
:1002DC0070BC70470430014600688668AE42FAD99B
:1002EC00EEE70369D0E900124A6011601968814297
:1002FC0008BF1A6000220261188B013880B2188383
:10030C007047024603681B6842F8043B934204BFE3
:10031C001B6803600368D86870470000F0B5264E70
:10032C0032686AB9254B264940F654041A719A6012
:10033C000A6001221C6033608B60224B0A711C60C6
:10034C00C31C33F0030335D01E4F3968994231D3A7
:10035C001B4A3068926890421FD10079012829D03D
:10036C0014689C4226D3E51A142D02F10C001CD9FA
:10037C0003F10C0C0C3D42F80C50002502EB0C0464
:10038C0025719568A56005B9346001250C39136099
:10039C00CB1A157194603B60F0BD14689C4202D37B
:1003AC001479012CDCD19268D5E70123091B137158
:1003BC003960F1E70020EFE72C0000203C00002022
:1003CC003000002028000020F0B5254D296899B197
:1003DC0090B10B680C330B4498420DD2214EB3688C
:1003EC000C33984208D3324633460C38994207D026
:1003FC00834202D1197931B9F0BD1A469B68F5E7F1
:10040C008342F9D1F6E70027174C196820681F7151
:10041C009F680844206077B197F804C0BCF1000FC6
:10042C0009D10C30206038680C3101441960B9686E
:10043C00996001B92B6011790029DDD1B242DBD072
:10044C0029681868994221689B6801F10C012160A8
:10045C00116808BF2A6001440C3111609360CBE72E
:10046C002C000020300000202800002010B5FFF7E1
:10047C00CBFE0F4A0F4BD2F86C021A6000231C46BD
:10048C0002F114011F2B03F1010312BF41F8141CDC
:10049C0001240020202B01F11401F3D10CB1C2F87E
:1004AC006C020022044B1A70BDE81040FFF7B4BE7A
:1004BC00A00800209C080020200B002010B504464A
:1004CC00FFF7A2FE084B1A681C60237C2260012BEC
:1004DC0002D1E068FFF778FF044A1378013B1370F0
:1004EC00BDE81040FFF798BE9C080020200B0020B0
:1004FC0000230172C0E9003343727047F8B504461B
:10050C000D46FFF781FE627A237A934203D8BDE849
:10051C00F840FFF781BE0E4908781F28F7D80D4E1A
:10052C000130336808701F68376042B90121C4E993
:10053C00003361721A6000229D601A74E7E76168EB
:10054C0001320B600021636019606272F3E700BF37
:10055C00200B00209C080020427A03466AB1012A35
:10056C0008BF0022006818BF02F1FF3201685A72FE
:10057C00196008BFC3E9002270471046704700009D
:10058C000123C0F3C702054900F00700C0F10700C2
:10059C0003FA00F08B5C184388547047210B002041
:1005AC000022034B09201A705A70FFF7E9BF00BFF5
:1005BC00210B00200123C0F3C702054900F00700FE
:1005CC00C0F107008340885C20EA03008854704720
:1005DC00210B00200020094B13F8012B3AB100230A
:1005EC00C3F1070342FA03F3DB0702D57047083067
:1005FC00F2E7013000F00703F2E700BF210B002007
:10060C00FEE708B500F0ACFBFCE7000070B5044653
:10061C001C260A4D90F83000211D06FB0050FFF7F8
:10062C0030FE94F8300006FB00552B8B012B01D1CA
:10063C00FFF7A6FF012384F84C3070BD680B002037
:10064C00F8B5224B224C06461D6820680F46043034
:10065C00FFF747FE20B9236893F83000FFF7AAFF95
:10066C00731C19D1C7B121681A480431FFF709FE70
:10067C000322236883F84C20FFF7ACFF1C22C3B283
:10068C00154802FB03004368DA68144B1A60002219
:10069C001B6883F84C20F8BD2368AD19DD6008D3C6
:1006AC000F4B186821680431FFF7FEFD0222236806
:1006BC00E0E70C4B186821680431FFF7F5FD0A4B95
:1006CC001A68AA4288BF1D60F0E700BFB40C002076
:1006DC00AC0C0020840C0020680B0020B00C002017
:1006EC00640B00205C0B0020000000202DE9F74F6C
:1006FC0098460C9B074601934B4B8A461B689346C6
:10070C00DDF83490002B00F08680484A1278824243
:10071C0040F2818053F82050002D7CD14FEA8900A3
:10072C00FFF7FCFD0646002875D05020FFF7F6FDBC
:10073C000446002872D05022294600F061FC5B462A
:10074C00524649463046E66200F0A6FB9DF804107E
:10075C002060C4F8349004F1400084F83C7084F8B4
:10076C00308004F10409FFF7C3FE4846FFF786FD0D
:10077C0004F11800FFF782FD24616462C4F80C8058
:10078C00FFF742FD2A4A2B4E138801339BB213808C
:10079C0013889BB2012B1CD1B04640460135FFF7A4
:1007AC0064FD0A2D08F11C08F7D1DFF88C80234D6D
:1007BC004046FFF75AFD2846FFF757FD2048FFF744
:1007CC0054FD204BC3F800801F4B1D601F4B1C6059
:1007DC0007E01E4B1A6892F8301094F830209142C2
:1007EC00F5D91C2594F83000494605FB0060FFF74D
:1007FC0048FD94F8300005FB0066338B012B01D1CA
:10080C00FFF7BEFE012384F84C30FFF705FD064BC5
:10081C001B6843F8274003B0BDE8F08F304603B0A7
:10082C00BDE8F04FFFF7D0BDA40C0020A80C0020B1
:10083C00600B0020680B0020240B0020400B0020D4
:10084C00840C00205C0B0020640B0020AC0C0020FE
:10085C00014B1868704700BFB40C0020014B18788E
:10086C00704700BFA00C0020014B1878704700BFE8
:10087C00A90C0020324B2DE9F743002B46D0314810
:10088C0048B1834242D0C01A41F2B87398423AD868
:10089C002D4BC01058432D4F2D4DC0B2431C3870FA
:1008AC0028702C4C0230C0B22B4E2070800033705C
:1008BC00FFF734FD294A106028B3227800219200FA
:1008CC0000F09EFB1E4CDFF87C80DFF894904445D2
:1008DC001ED3234C30782378012B08D008236422B4
:1008EC00CDE9003200231F491A46FFF7FFFE23789B
:1008FC002878012B07D0112300221B49CDE90023B6
:10090C000923FFF7F3FE03B0BDE8F0830020C2E734
:10091C0020783B78834211D999F80020237B012A57
:10092C000CD0092B0AD8616841B16269102A05D92B
:10093C00019222690092A268FFF7D8FE1834C6E72C
:10094C00D0100008E8100008ABAAAAAAA00C00203E
:10095C00A10C0020A80C0020A90C0020A40C002045
:10096C00800C00200F0600080D0600082DE9F84346
:10097C002F4B304F1D6801351D605DB92E4B2F4A32
:10098C0019681068186011601A68128B32BB4FF02E
:10099C00FF333B603B680026AB420AD8DFF89880F7
:1009AC00DFF89C90D8F800301B8BE3B94FF0FF3385
:1009BC003B60FFF70FFE1C22C3B2224802FB030070
:1009CC00038B012B2ED9FFF79CFC1F4B18600022C8
:1009DC001D4B01261B6883F84C2025E01B685B68C7
:1009EC00DB68DB68D5E7D8F800305B68DC68E36867
:1009FC009D42DDD3201DFFF774FCA36A1BB104F1EB
:100A0C001800FFF76EFC2046FFF700FED9F8003007
:100A1C0094F8302093F830309A42C3D20A4B012616
:100A2C001C60BFE7002ED2D13046BDE8F88300BF72
:100A3C00B40C0020000000205C0B0020640B002094
:100A4C00AC0C0020680B0020B00C002008B5FFF7A0
:100A5C00C1FD1C220A4B02FB00335B68DA68094BB0
:100A6C001A601A68084B1A600022084B1A604FF083
:100A7C00FF32074B1A600122064B1A7008BD00BFEB
:100A8C00680B0020B00C0020AC0C0020B40C002033
:100A9C0000000020800C002070B5294D04460E4645
:100AAC00FFF7B2FB2B6833B1264A1278A24202D967
:100ABC0053F8240018B9BDE87040FFF7ADBB90F8AF
:100ACC004C304030042B05D0052B2BD03146FFF792
:100ADC0015FDF0E73146FFF711FD2B6853F82400A4
:100AEC00836A13B11830FFF7FCFB2B6853F8240012
:100AFC00FFF78CFD2B6853F82420134B92F8301021
:100B0C001B6893F830309942D5D2104B1A600022F2
:100B1C001B6883F84C204FF0E0234FF08052C3F851
:100B2C00042DC8E73146FFF7E9FC2B6853F8240085
:100B3C004369002BD1D00430FFF7D3FBCDE700BFC6
:100B4C00A40C0020A80C0020AC0C0020B00C002041
:100B5C00F8B5194E0446194FFFF756FB336893F856
:100B6C003C203B6853F822004030FFF7F5FC05466B
:100B7C00F4B1E8B920460121FFF762FD01340CBF46
:100B8C0004220522336883F84C204FF0E0234FF009
:100B9C008052C3F8042DFFF73FFB336893F83C20D9
:100BAC003B6853F82200BDE8F8404030FFF7D4BC56
:100BBC00FFF732FB2846F8BDAC0C0020A40C00203B
:100BCC0010B50446FFF720FBFFF742FE236904F142
:100BDC00080198428CBF044B044B1868FFF764FB68
:100BEC00BDE81040FFF718BBC00C0020FC0C002027
:100BFC00084A1368198B084B19B94FF0FF321A6069
:100C0C0006E0126819685268D26812698A42F6D3F3
:100C1C00704700BFFC0C0020040000202DE9F047B9
:100C2C00DDF820A01D468146884617469DF82460B5
:100C3C00FFF714FEA84203D800242046BDE8F08735
:100C4C00FFF712FEA842F7D0BAF1000F01D1012E26
:100C5C00F2D0FFF7D9FA124A1378072B02D81148B1
:100C6C00046814B9FFF7D8FAE6E72168013301608C
:100C7C001370FFF7D1FA84F80490C4F81C806762F3
:100C8C0084F820503EB1012E07D004F10800FFF784
:100C9C00F5FA6461D1E7A662F7E7C4F828A0F4E797
:100CAC00600E0020B80C002010B50446FFF7ACFA1B
:100CBC000A4A13781BB9BDE81040FFF7ADBA0849D2
:100CCC00013B08681370A36920600C60002BF2D004
:100CDC0004F10800FFF705FBEDE700BF600E0020F4
:100CEC00B80C002038B5164A164BD2F834011A60ED
:100CFC0000231C4602F12C01072B03F1010312BF48
:100D0C0041F82C1C01240020082B01F12C01F3D1FB
:100D1C000CB1C2F8340100220B4D0C4B0C4C284684
:100D2C001A70FFF7A2FA2046FFF79FFA4FF0FF3236
:100D3C00084B1D60084B1C60084B1A6038BD00BF87
:100D4C00000D0020B80C0020C40C0020600E002008
:100D5C00E00C0020FC0C0020C00C00200400002043
:100D6C002DE9F041FFF774FD264F05463B68264EF2
:100D7C0083420BD9254B264A1968106818601160FC
:100D8C001B681B8BC3B94FF0FF3333603368AB4226
:100D9C0008D8DFF87880D8F800301B8B73B94FF087
:100DAC00FF33336030683D60401BFFF7D1FE38B332
:100DBC00BDE8F041FFF782BB0023E6E7D8F800302E
:100DCC005B68DC6823699D42EBD304F10800FFF7F4
:100DDC0088FA636A53B19847A36A6BB12B442046D7
:100DEC002361FFF7EDFEFFF703FFD4E7E16994F809
:100DFC002000FFF751FEEFE72046FFF755FFF2E723
:100E0C00BDE8F081BC0C002004000020FC0C00208C
:100E1C00C00C002038B50D460446FFF719FD2844D8
:100E2C0020612046FFF7CCFEFFF7E2FEFFF71CFD2A
:100E3C00BDE838400021FFF72FBE4FF47A73B0FBAA
:100E4C00F3F04FF0E02382B00190019A013A5A611D
:100E5C0000229A6107221A61D3F8202D22F07F42DA
:100E6C00C3F8202DD3F8202D42F08052C3F8202D4A
:100E7C0002B0704706480068006880F3088862B6C4
:100E8C0061B6BFF34F8FBFF36F8F00DF00BF000061
:100E9C0008ED00E0704700BF01F18041013900EB23
:100EAC00810020F0070022F0010240F8082C4FF0DE
:100EBC0080710E2240F8041C40F80C2C40F8203CA9
:100ECC004038704772B6064909680868B0E8F00FF8
:100EDC0080F309884EF00D0E62B670477047000023
:100EEC00AC0C0020EFF3098028B1203880E8F00F1B
:100EFC00084909680860074807490A6802601068D1
:100F0C0090E8F00F203080F309884EF0040E704703
:100F1C0070470000AC0C0020B00C002008B572B675
:100F2C00FFF724FD012802BF4FF0E0234FF0805261
:100F3C00C3F8042D62B608BD084AD36943F0020316
:100F4C00D361A2F55052136823F4405343F48053F9
:100F5C0013604FF480039361704700BF0038024068
:100F6C00024A536983F04003536170470004024006
:100F7C0013B500234FF4FA7401211A461846CDE933
:100F8C000041FFF74BFE10B12146FFF743FF4FF036
:100F9C00FF30FFF7DDFD04460028F8D0FFF7E0FF37
:100FAC002046FFF78BFAF2E708B5FFF7C5FFFFF70E
:100FBC003DF9FFF74BF9FEE770B50D4E0D4D761B65
:100FCC00B61006D0002455F8043B01349847A642CD
:100FDC00F9D1094E094D00F065F8761BB61006D014
:100FEC00002455F8043B01349847A642F9D170BD52
:100FFC00C8100008C8100008CC100008C810000861
:10100C00830730B548D0541E002A3FD00346CAB2DD
:10101C0001E0013C3AD303F8012B9D07F9D1032CD5
:10102C002DD9CDB245EA05250F2C45EA054536D913
:10103C00A4F1100222F00F0C03F1200EE6444FEA4B
:10104C00121C03F1100242E9045542E90255103218
:10105C007245F8D10CF1010214F00C0F03EB0212E3
:10106C0004F00F0C13D0ACF1040323F0030304338E
:10107C00134442F8045B9342FBD10CF003042CB1F3
:10108C00CAB21C4403F8012B9C42FBD130BD644610
:10109C001346002CF4D1F9E703461446BFE71A4671
:1010AC00A446E0E7F8B500BFF8BC08BC9E46704704
:0C10BC00F8B500BFF8BC08BC9E467047A9
:0410C800A501000876
:0410CC007D0100089A
:1010D000000000007D0F000800000000020000007A
:0810E0000400000040000000C4
:0810E800FFFFFFFFFFFFFFFF08
:04000005080001C925
:00000001FF
